:100000000C9467000C948F000C948F000C948F005C
:100010000C948F000C948F000C948F000C948F0024
:100020000C948F000C948F000C948F000C948F0014
:100030000C948F000C948F000C948F000C948F0004
:100040000C9476160C948F000C9475190C94A719C7
:100050000C948F000C948F000C948F000C948F00E4
:100060000C9480030C948F00000000080002010033
:100070000003040700000000000000000102040863
:100080001020408001020408102001020408102002
:10009000040404040404040402020202020203032E
:1000A00003030303000000002300260029000000D2
:1000B0000000250028002B0000000000240027007D
:1000C0002A0066019602BD078B0AEB15D719112489
:1000D0001FBECFEFD8E0DEBFCDBF12E0A0E0B1E0A1
:1000E000E8E9F5E302C005900D92A830B107D9F711
:1000F00026E0A8E0B2E001C01D92AF35B207E1F7FB
:1001000010E0CEECD0E004C02297FE010E94AC1AB1
:10011000C23CD107C9F70E941B1A0C94CA1A0C944E
:100120000000CF93DF93EB01BC0188E092E00E94D6
:10013000681A41E060E088E092E00E946B05BE0131
:1001400088E092E0DF91CF910C94681ACF93DF930F
:100150006EE172E082EC95E00E94751A62E171E056
:1001600082EC95E00E94681AD0911402D150CD2FF4
:10017000ED2FEC1BC7FD13C0FF27E7FDF095E25EF6
:10018000FD4F6081EC2FFF27E7FDF095EB5EFD4F03
:10019000608382EC95E00E946A1AC150E9CF82EC3C
:1001A00095E00E94711A85E192E0DF91CF910C9465
:1001B0005616EEE1F2E0119282E0E732F807D9F745
:1001C000E5E1F2E080E3819392E0EE31F907D9F7BF
:1001D0001092140208956EE171E08AE291E00E94AB
:1001E000910088E092E00E94A60588E092E00E94DB
:1001F000100526E040E855E260E070E082EC95E012
:100200000E9413190E94D9000E94E51548E264E19A
:1002100084E00E94F1158F3F71F027E046E065E031
:1002200083E00E9442168F3F31F06AE371E082EC76
:1002300095E00C94751A08950E941C16843F39F1BC
:100240008B3031F40E94A6000E94D9008BE0089503
:10025000909114028A3059F4915090931402E92F2E
:10026000FF27E7FDF095E25EFD4F1082089599307B
:1002700069F0E92FFF27E7FDF095E25EFD4F20E3EF
:10028000280F20839F5F909314020895089584EFB0
:100290000895CF930E941C01C82F88E092E00E942D
:1002A0005D056EE172E088E092E00E94681ACB3052
:1002B00031F46CE471E082EC95E00E94751A64EF11
:1002C00071E080E090E0CF910C94EF160F9300E086
:1002D00022E040E167E288E092E00E94E3040F91AF
:1002E00008958091570290E020915802821B910955
:1002F00008952091580280915702281750F4E22F58
:10030000F0E0E75AFD4F808190E02F5F2093580284
:1003100008958FEF9FEF0895E09158028091570262
:10032000E81730F4F0E0E75AFD4F808190E008953F
:100330008FEF9FEF08950895CF92DF92EF92FF9293
:100340000F931F93CF93DF937C01CB018A01209100
:100350003302222389F0EB016B01C40ED51ECC15AC
:10036000DD0569F06991D701ED91FC910190F08173
:10037000E02DC7010995F3CF642F0E945703C801F0
:10038000DF91CF911F910F91FF90EF90DF90CF9071
:100390000895CF93DF931F92CDB7DEB76983209185
:1003A00033022223D1F020913402203240F021E0A8
:1003B00030E0FC013383228380E090E015C080911F
:1003C0003502E82FF0E0EA5CFD4F998190838F5F62
:1003D000809335028093340205C061E0CE0101961E
:1003E0000E94570381E090E00F90DF91CF91089534
:1003F000FC011382128248EE53E060E070E0448317
:1004000055836683778382EB91E09183808308959F
:100410001092580210925702109235021092340234
:100420000C949A0281E080933302609356021092FA
:1004300035021092340208950F93062F21E0409167
:10044000340266E372E0809156020E94000310922B
:10045000350210923402109233020F9108958F9258
:100460009F92AF92BF92CF92DF92EF92FF920F9343
:100470001F93CF93DF93EC01F62ED42E4801590140
:10048000EE2019F10E9412021E2D143008F013E024
:100490001150B8F0E881F98128E0129FB0011124D1
:1004A000A501940104C056954795379527956A95FF
:1004B000D2F7CA01B9010190F081E02DCE01099572
:1004C000E7CF60E0CE010E941C024D2D413208F0C2
:1004D00040E22C2D69E572E08F2D0E94B802109247
:1004E000580280935702DF91CF911F910F91FF9097
:1004F000EF90DF90CF90BF90AF909F908F90089536
:10050000CF92EF920F931F93C22EE12C00E010E0E8
:1005100098010E942F021F910F91EF90CF900895A4
:1005200021E00C94800261E00C941C0287E292E0CE
:100530000C94F8011092E60281E08093E40210929C
:10054000E30261E082E10E94D11761E083E10E9451
:10055000D117E9EBF0E080818E7F808380818D7FF1
:10056000808388E48093B80085E48093BC0008957C
:10057000413208F043C09091E6029111FCCF91E026
:100580009093E6022093E4022FEF209379021092D9
:10059000BE02240F2093BD029093E5029091E502E4
:1005A000880F892B8093E5028091E302813061F40A
:1005B0001092E3028091E5028093BB008091BC0021
:1005C00083FDF8CF85EC01C085EE8093BC0080915F
:1005D000E6028130E1F38091BE02841710F440916D
:1005E000BE022FEB32E0FB01D9018A2F821B841758
:1005F00018F48D918193F9CF842F089580E00895A8
:100600000F93413208F04AC09091E6029111FCCF5D
:1006100092E09093E6020093E4029FEF90937902B8
:100620001092BE024093BD02FB016FEB72E0DB0152
:100630009A2F961B941718F491919D93F9CF1092CD
:10064000E5029091E502880F892B8093E502809165
:10065000E302813061F41092E3028091E50280931D
:10066000BB008091BC0083FDF8CF85EC01C085EE16
:100670008093BC00222321F08091E6028230E1F3D6
:10068000809179028F3F61F080917902803251F040
:1006900080917902803341F483E007C081E005C096
:1006A00080E003C082E001C084E00F9108956132D0
:1006B00098F42091E602243089F460939B02FC01B7
:1006C0008DE992E0DC012A2F281B261718F42191CE
:1006D0002D93F9CF80E0089581E0089582E0089598
:1006E00085ED8093BC008091BC0084FDFCCF10920E
:1006F000E602089585EC8093BC001092E60208950E
:100700001F920F920FB60F9211242F933F934F9386
:100710005F936F937F938F939F93AF93BF93EF9369
:10072000FF938091B900887F803609F49EC078F5E8
:10073000883209F45DC090F4803109F456C038F471
:10074000882309F4F5C0883009F44FC0F5C088311A
:1007500009F44EC0803209F45FC0EEC0803409F461
:100760006AC058F4803309F457C0883309F0E4C0F4
:10077000809379020E947A03DFC0803509F44FC06C
:10078000883509F45DC0883409F0D6C0D3C08839F3
:1007900009F4C4C0A8F4883709F467C038F488366F
:1007A00009F463C0803709F460C0C6C0883809F412
:1007B000B5C0803909F45FC0803809F0BDC05BC0A6
:1007C000803B09F483C038F4803A09F466C0883A63
:1007D00009F47CC0B1C0803C09F4A4C0883C09F491
:1007E000A1C0883B09F487C0A7C08091E50210C072
:1007F0009091BE028091BD02981770F5E091BE0203
:1008000081E08E0F8093BE02F0E0E154FD4F8081C5
:100810008093BB0085EC83C0809379028BC0E0910C
:10082000BE0281E08E0F8093BE028091BB00F0E09B
:10083000E154FD4F80839091BE028091BD026BC058
:10084000E091BE0281E08E0F8093BE028091BB00DA
:10085000F0E0E154FD4F80838091E40281116AC091
:1008600081E08093E30284EA5EC083E08093E60245
:1008700010927A02CFCF80917A02803208F04EC077
:10088000E0917A0281E08E0F80937A028091BB0022
:10089000F0E0E558FD4F8083BDCF0E947A03809140
:1008A0007A02803230F4E0917A02F0E0E558FD4FB0
:1008B000108260917A0270E0E091DF02F091E00234
:1008C0008BE792E0099510927A0236C084E080931B
:1008D000E60210929C0210929B02E091E102F091DC
:1008E000E202099580919B02811105C081E080930D
:1008F0009B0210929D02E0919C0281E08E0F8093FA
:100900009C02F0E0E356FD4F80818093BB00909104
:100910009C0280919B02981708F47CCF85E8809315
:10092000BC000AC085EC8093BC001092E60204C0B3
:10093000109279020E947003FF91EF91BF91AF91E5
:100940009F918F917F916F915F914F913F912F91E7
:100950000F900FBE0F901F901895CF93CFB7F894BC
:100960008091EA02811127C0EAE9F0E08491E6E88B
:10097000F0E09491E82FF0E0EE0FFF1FE854FF4FF6
:10098000A591B4918C91892321F461E08AE00E94C1
:10099000D11761E08AE00E9498178CB580618CBD08
:1009A0008CB580648CBD61E08DE00E94981761E099
:1009B0008BE00E9498178091EA028F5F8093EA0291
:1009C000CFBFCF9108950F93FC011382128282EC66
:1009D00091E091838083648340872187028788E048
:1009E00083870F9108951F93CF93DF93EC01162F08
:1009F0006C8187E292E00E941202E0912702F0915E
:100A000028026B85612B0190F081E02D87E292E056
:100A1000099587E292E0DF91CF911F910C949302A8
:100A200028E0FC01238760E00C94F3041F93CF932C
:100A3000DF93EC01162F64600E94F30481E090E0E4
:100A40000E942917612F6B7FCE010E94F30482E37D
:100A500090E0DF91CF911F910C9429171F93CF93B2
:100A6000DF93EC01162F0E94F304612FCE01DF917A
:100A7000CF911F910C941605EF92FF921F93CF9385
:100A8000DF931F92CDB7DEB77C01162F607F642BFA
:100A900049830E942E0580E1189FB00111244981ED
:100AA000642BC7010F90DF91CF911F91FF90EF90C2
:100AB0000C942E0540E00C943C0561E00E945A0520
:100AC00080ED97E00C94291762E00E945A0580EDB2
:100AD00097E00C942917CF93DF93CDB7DEB7289713
:100AE0000FB6F894DEBF0FBECDBF28E0EAE0F1E01C
:100AF000DE01119601900D922A95E1F7FC01218506
:100B0000241710F44FEF420FFE013196E40FF11D50
:100B1000E40FF11D2081260F2068622F28960FB662
:100B2000F894DEBF0FBECDBFDF91CF910C945A0574
:100B3000FC016681262F246026836C600C945A0584
:100B400041E00E943C0581E090E00895CF93DF935F
:100B5000EC0187E292E00E9408021D8289858230C2
:100B600010F098E09D839A85992329F0813019F43B
:100B70008D8184608D8362E370E080E090E00E946C
:100B8000EF166B85CE010E94F30468EE73E080E0FF
:100B900090E00E94EF1660E3CE010E942E0584E9EA
:100BA00091E10E94291760E3CE010E942E0584E99D
:100BB00091E10E94291760E3CE010E942E0586E98B
:100BC00090E00E94291760E2CE010E942E056D81FF
:100BD0006062CE010E945A0584E08E83CE010E949D
:100BE0009805CE010E945D0582E08F8366E0CE010C
:100BF0000E945A05CE01DF91CF910C94640520919B
:100C0000E902222399F03FB7F8942091E9022130BC
:100C100059F42DB32093E7024DB32091E8022095BB
:100C200024232DBB3FBF02C03093E7028CBD9DBD86
:100C300008958EBD00000DB407FEFDCF8EB508955A
:100C40008091E902882361F09FB7F8942091E9022E
:100C50008091E702213019F48DBB9FBF08958FBFAB
:100C60000895FC01648745870895EF92FF921F93D2
:100C7000CF93DF931F92CDB7DEB77C01162F83E5AC
:100C800090E049830E94FF0560E0F70184850E949F
:100C9000D117812F8E770E9419064981842F0E94D7
:100CA000190661E0F70184850E94D1170F90DF914A
:100CB000CF911F91FF90EF900C9420061F93CF933C
:100CC000DF93EC01162F83E590E00E94FF0560E0C2
:100CD0008C850E94D117812F8E7780680E9419061B
:100CE00080E00E941906182F61E08C850E94D117C0
:100CF0000E942006812FDF91CF911F910895CF93FD
:100D0000DF93EC014FE062E00E94350662E370E0A1
:100D100080E090E00E94EF1662E0CE010E945E0645
:100D200084FDFACFDF91CF910895CF93DF93EC014B
:100D300068E20E945E06982F9370933041F0482F2E
:100D4000436068E2CE01DF91CF910C943506DF91CC
:100D5000CF910895CF93DF93EC0161E08C850E94E1
:100D6000981761E08C850E94D11761E08D850E9403
:100D700098178D850E940718892B59F461E08D859D
:100D80000E94D11762E370E080E090E00E94EF16CD
:100D900003C0CE010E947F0640E864E5CE010E94B8
:100DA000350649EA66E5CE010E94350643E068E56E
:100DB000CE010E94350648EE6AE5CE010E94350656
:100DC00040E46AE2CE010E9435064DE362E2CE01C4
:100DD0000E943506CE01DF91CF910C9495061F93AA
:100DE000CF93DF93EC0188E2898384E18A8384E0F6
:100DF0008B8311E01C831D8380E18E8390E29F83AF
:100E0000188719878A879B871C878D878FEF8E8726
:100E10009FE09F87988B198A1A8A1B8B1C8B8D8B5E
:100E20008E8B1F8A188E198E91E19A8F8B8F80E39B
:100E30008C8F8CEC8D8F1E8E1F8E18A219A21AA279
:100E400087E292E00E9408028CE588831BA21DA223
:100E50001CA3FE01E45AFF4F1182108232961182C8
:100E60001082C05ADF4F1882DF91CF911F910895F1
:100E70006D3020F4FC0124A120FF02C080E0089521
:100E8000FC01E45AFF4F8081918102C096958795BD
:100E90006A95E2F7817008956D3020F4FC0124A179
:100EA00020FF02C080E00895FC01E25AFF4F8081DC
:100EB000918102C0969587956A95E2F781700895B1
:100EC0001F93CF93DF93EC01162F6D3070F48CA13C
:100ED00080FD0BC0CE010E944C07811106C0612F1E
:100EE000CE010E943807811101C080E0DF91CF91CF
:100EF0001F9108950F931F93CF93DF93EC01062F5B
:100F00006D3070F48CA180FD0BC0CE010E944C07A7
:100F1000182F882329F0602FCE010E9438078111F5
:100F200010E0812FDF91CF911F910F9108951F93B2
:100F3000CF93DF93EC01162F8CA180FD08C062E0F7
:100F4000812F0E949817612F70E07FA36EA3DF911D
:100F5000CF911F910895FC01E05AFF4F208121118C
:100F60000AC0FC0186A10E94071821E0892B09F024
:100F700020E0822F089581E008958BEE92E00C949A
:100F8000EF061F93CF93DF93EC01162F688187E262
:100F900092E00E941202612F87E292E00E94C90152
:100FA00060E087E292E00E941C0241E0688187E2F3
:100FB00092E00E94900287E292E00E9493029CA13C
:100FC000882311F0926001C09D7F9CA387E292E08C
:100FD0000E9479019CA1113021F487FF02C0986022
:100FE00001C0977F9CA312509CA1123020F488234B
:100FF00011F0906101C09F7E9CA3DF91CF911F9162
:101000000895CF93DF93EC018CA180FD0DC06EE5B8
:10101000CE010E94C1078BA3482F407C6EE5CE0114
:10102000DF91CF910C941708DF91CF910895FF9233
:101030000F931F93CF93DF93EC01062FF42E6E35A1
:1010400041F4842F8F7319F081E08DA30AC01DA293
:1010500008C0633730F41DA1112321F00E9401085C
:1010600001C010E0688187E292E00E941202602FC6
:1010700087E292E00E94C9016F2D87E292E00E9410
:10108000C90187E292E00E9493029CA1882311F09B
:10109000926001C09D7F9CA3112341F0CE01DF919E
:1010A000CF911F910F91FF900C945C08DF91CF912D
:1010B0001F910F91FF900895FC0124A120FD04C011
:1010C00043A16EE50C94170808956D3040F4FC01BF
:1010D00024A120FD04C0660F6F5B0C9417080895CF
:1010E0006D3040F4FC0124A120FD04C0660F6E5B4E
:1010F0000C9417080895FF920F931F93CF93DF93DB
:10110000EC01F62E8CA180FD19C00DA1002319F071
:10111000CE010E94010810E04F2D612FCE010E94E8
:1011200065081F5F1D30C1F7002341F0CE01DF913C
:10113000CF911F910F91FF900C945C08DF91CF919C
:101140001F910F91FF900895FF920F931F93CF93DC
:10115000DF93EC01F62E8CA180FD19C00DA10023B8
:1011600019F0CE010E94010810E04F2D612FCE0131
:101170000E9470081F5F1D30C1F7002341F0CE01AF
:10118000DF91CF911F910F91FF900C945C08DF913C
:10119000CF911F910F91FF900895FF920F931F938E
:1011A000CF93DF93EC018B01FDA0F1100E940108A9
:1011B000F80143816BE2CE010E941708F8014481D7
:1011C0006CE2CE010E941708F80145816DE2CE0164
:1011D0000E941708F80146816EE2CE010E941708AE
:1011E000F80147816FE2CE010E941708F80140859F
:1011F00060E3CE010E941708F801418561E3CE014A
:101200000E941708F801428562E3CE010E94170888
:10121000F801438563E3CE010E941708F801448575
:1012200064E3CE010E941708F801458565E3CE010D
:101230000E941708F801468566E3CE010E94170850
:10124000F801478567E3CE010E941708F80140893D
:1012500068E3CE010E941708F801418969E3CE01D5
:101260000E941708F80142896AE3CE010E9417081C
:10127000F80143896BE3CE010E941708F801448905
:101280006CE3CE010E941708F80145896DE3CE0199
:101290000E941708F80146896EE3CE010E941708E4
:1012A000F80147896FE3CE010E941708F801408DCD
:1012B00060E4CE010E941708F801418D6BE5CE0174
:1012C0000E941708F801428D6CE5CE010E941708B4
:1012D000F801438D6DE5CE010E941708F801458D98
:1012E0006BE7CE010E941708F801468D6CE7CE012E
:1012F0000E941708F801478D6DE7CE010E9417087C
:10130000F80140A16EE7CE010E941708F80141A143
:101310006FE7CE010E941708F801448D6EE5CE01FB
:101320000E9417088CA18E7F8CA3F8016081CE01EA
:101330000E947B08F8016181CE010E94A408F80197
:101340006281CE010E949707FF2041F0CE01DF911C
:10135000CF911F910F91FF900C945C08DF91CF917A
:101360001F910F91FF900895CF93DF93EC0162E0FE
:101370000E94C10763E0CE010E94C1078CA180FDDD
:101380000BC081FD0CC082FD0DC083FD0EC084FF2B
:101390000FC085E090E00EC086E090E00BC082E0D8
:1013A00090E008C083E090E005C084E090E002C0D7
:1013B00080E090E0DF91CF910895CF93DF93EC012F
:1013C00043E660E80E9417086DE5CE010E94C10760
:1013D0009CA1843211F0946001C09B7F9CA361E0CA
:1013E000CE010E94C1079CA187FF02C0986001C086
:1013F000977F9CA3CE010E94B409069739F0CE01D5
:101400000E94B409892B11F080E001C081E0DF91D6
:10141000CF910895CF93DF93EC018CA18E7F8CA3A5
:10142000CE010E94DD09882341F0BE016F5F7F4F2E
:10143000CE010E94CD0881E001C080E0DF91CF9114
:10144000089526EA260F243010F4FC0160830C94E2
:101450000A0AFF920F931F93CF93DF93EC018CA1A5
:1014600080FD1FC0FE01E05AFF4F108232978E01AF
:10147000045A1F4FD8018D919C919183808360E025
:10148000CE010E94C107F82E61E0CE010E94C10783
:10149000282F30E0322F22272F0D311DF801318304
:1014A0002083DF91CF911F910F91FF900895EF92CC
:1014B0000F931F93CF93DF93EC01E02E022F242F85
:1014C000462F61E00E94EE0B811102C080E01DC03A
:1014D0008E01035F1F4F41E0BE01C8010E94D1147D
:1014E000882359F0B801CE018B960E94D30E91E06B
:1014F000811101C090E0892F08C040E0BE01C80101
:101500000E94D114882311F3EDCFDF91CF911F9169
:101510000F91EF9008951092510310925203109280
:1015200055031092570382E090E0A0E0B0E0809372
:10153000590390935A03A0935B03B0935C031092FA
:10154000700310927A03109279038AEC91E09093E1
:1015500078038093770310927C03089590919F0302
:101560009F3F39F48EBD00000DB407FEFDCF8EB550
:101570000895F894E0919B03F0919C0340919703A8
:10158000342F3095A0919D03B0919E035091980304
:10159000652F609598E02081232320832C9187FF7D
:1015A00002C0252B01C026232C932081242B2083CD
:1015B000880F915081F7000000000000000080813A
:1015C000832380837894089580919F038F3F39F41B
:1015D0008EBD00000DB407FEFDCF8EB50895F894C2
:1015E000E0919D03F0919E03808190919803892B57
:1015F0008083E0919B03F0919C0330919703A0912D
:101600009903B0919A0350919603432F409598E027
:1016100080E02081232B2083880F2C91252309F043
:10162000816020812423208300000000915089F7ED
:10163000789408952CB5982F93702C7F922B9CBD95
:101640009DB582FB882780F99E7F982B9DBD0895CC
:1016500061E0FC0184810C94D11760E0FC0184817D
:101660000C94D117CF93DF93EC018E81882389F0FE
:101670008F8198859C012F5F3F4F38872F83823061
:10168000924018F40E94E40AF3CFCE010E94280B86
:101690001E82DF91CF910895673028F026E1FC018A
:1016A000258380E00895633079F028F46130A1F05B
:1016B000623041F005C0653059F040F0663051F0BD
:1016C00084E00BC085E009C081E007C086E005C06A
:1016D00082E003C083E001C080E00E941A0B81E039
:1016E00008950F931F93CF93DF93EB010E94C016D1
:1016F0008B010E94E40A8F3F49F00E94C016601BD4
:10170000710B6C177D07A8F380E001C081E0DF91C9
:10171000CF911F910F910895CF92DF92FF920F9377
:101720001F93CF93DF9300D000D0CDB7DEB76C010D
:10173000F62E29833A834B835C830E94320BC601C9
:101740000E942D0B6CE271E0C6010E94710B8F2D7F
:1017500080640E94AE0A08E110E05C814B813A810E
:101760002981DA01C901002E04C0B695A795979585
:1017700087950A94D2F729833A834B835C830E942E
:10178000AE0A0850110929813A814B815C81083FDA
:101790008FEF180731F7FF2029F0E8E0FE1621F05F
:1017A0008FEF03C085E901C087E80E94AE0A10E010
:1017B0000E94E40AF601828787FF04C01F3F11F0F0
:1017C0001F5FF6CF0F900F900F900F90DF91CF918A
:1017D0001F910F91FF90DF90CF900895AF92BF922D
:1017E000CF92DF92EF92FF920F931F93CF93DF93ED
:1017F000EC01B62E1B8619861E821D821C864C8328
:101800002093A1030093A003E0929F030E94C016BF
:101810008B0161E08C810E949817CE010E94280BF9
:101820008FEFE81609F45EC060E08091A0030E948B
:10183000981761E08091A1030E94981761E0809160
:101840009F030E94981780919F03992787FD909589
:10185000FC01E057FF4FE491F0E0EE0FFF1FE2556F
:10186000FF4F2591349130939C0320939B03FC01FF
:10187000E458FF4F8491809397038091A1039927A7
:1018800087FD9095FC01E057FF4FE491F0E0EE0FEB
:10189000FF1FE255FF4F2591349130939E03209313
:1018A0009D03FC01E458FF4F84918093980380913D
:1018B000A003992787FD9095FC01E057FF4FE49125
:1018C000F0E0EE0FFF1FEC55FF4F25913491309360
:1018D0009A0320939903FC01E458FF4F849180936D
:1018E000960305C00E94AD0483E00E941A0B2AE013
:1018F000A22E8FEF0E94AE0AAA94D9F7CE010E94C1
:101900002D0B20E030E0A90160E0CE010E948C0B9D
:10191000F82E8A8781E0F81649F00E94C016601BF5
:10192000710B613D774068F381E04BC02AEA31E0FA
:1019300040E050E068E0CE010E948C0B82FF02C0C4
:10194000FB860DC094E0F92E0E94E40A8A87FA947F
:10195000D9F78A3A11F082E034C082E08B878B8518
:10196000823031F4C12CD12CE12C80E4F82E03C05C
:10197000C12CD12C760120E030E0A90167E3CE0133
:101980000E948C0BA701960169E2CE010E948C0B8C
:101990008A87882349F00E94C016601B710B613D45
:1019A000774048F388E00DC08B858230E1F420E079
:1019B00030E0A9016AE3CE010E948C0B882331F04C
:1019C00086E08D83CE010E94280B24C00E94E40A89
:1019D000807C803C11F483E08B870E94E40A0E94A3
:1019E000E40A0E94E40ACE010E94280B80919F0322
:1019F0008F3F71F46B2DCE01DF91CF911F910F912D
:101A0000FF90EF90DF90CF90BF90AF900C944C0B75
:101A1000AA24A3948A2DDF91CF911F910F91FF905B
:101A2000EF90DF90CF90BF90AF9008950F931F93EA
:101A3000CF93DF93EC010E94C0168B010E94E40A51
:101A40008A878F3F49F40E94C016601B710B6D326C
:101A50007140A0F38FE003C08E3F39F08DE08D839D
:101A6000CE010E94280B80E001C081E0DF91CF9180
:101A70001F910F910895CF92DF92EF92FF920F93F3
:101A80001F93CF93DF93EC0169010115110509F450
:101A900062C0C801820F931F8130924008F05DC080
:101AA0008E81882371F088819981AA81BB81481732
:101AB00059076A077B0729F48F819885C816D906CC
:101AC00010F5488359836A837B838B85833039F093
:101AD000E9E0440F551F661F771FEA95D1F79A0179
:101AE000AB0161E1CE010E948C0B882319F083E0E9
:101AF0008D8333C0CE010E94160D882371F11886A4
:101B00001F8281E08E838F8198858C159D0540F41E
:101B10000E94E40A8F819885019698878F83F3CF7E
:101B20006701E00EF11ECE14DF0431F00E94E40ADA
:101B3000F60181936F01F7CF8F819885800F911FF8
:101B400098878F832985222319F08115924018F0F8
:101B5000CE010E94320B81E004C0CE010E94280B0E
:101B600080E0DF91CF911F910F91FF90EF90DF9078
:101B7000CF900895EF92FF920F931F93790100E0A9
:101B800012E020E030E00E943B0D1F910F91FF908A
:101B9000EF900895AF92BF92CF92DF92EF92FF92B3
:101BA0000F931F93CF93DF9300D0CDB7DEB78C0197
:101BB000862FF8019485992351F1DA01E12CF12C5B
:101BC000A12CB12CED91F0E0EB259F0164E035955F
:101BD00027956A95E1F72E273F27BA2CAA24A2263B
:101BE000B326F901FE2FEE27F295F07FAE26BF2631
:101BF00065E0220F331F6A95E1F7A226B326FFEFB7
:101C0000EF1AFF0AE11492E0F906E1F603C0AA24F4
:101C1000AA94BA2C49835A830E94AE0A4981E42EC1
:101C20005A81F52EC12CD12CF70181917F010E94A0
:101C3000AE0AFFEFCF1ADF0AC11482E0D806A1F77F
:101C40008B2D0E94AE0A8A2D0E94AE0A0E94E40AE1
:101C5000F80182878F71853039F081E18583C80171
:101C60000E94280B80E001C081E00F900F90DF916F
:101C7000CF911F910F91FF90EF90DF90CF90BF9089
:101C8000AF9008950F931F93CF93DF93EC018901D9
:101C9000411551056105710511F482E132C08B8552
:101CA000833039F0E9E0440F551F661F771FEA952E
:101CB000D1F79A01AB0168E1CE010E948C0B882319
:101CC00011F084E01EC0A8016EEFCE010E94CA0D83
:101CD0008823C1F068E572E0CE010E94710B81118A
:101CE00002C085E10EC020E030E0A9016DE0CE0128
:101CF0000E948C0B811104C00E94E40A882339F0F1
:101D000084E18D83CE010E94280B80E004C0CE01C7
:101D10000E94280B81E0DF91CF911F910F910895D0
:101D2000CF93DF93EC019C012A5F3F4F41E050E0ED
:101D300060E070E08B8D9C8D0E94BC138823A1F025
:101D40004F89588D698D7A8D452B462B472B71F421
:101D50004E815F81688579854F8B588F698F7A8F27
:101D60008C8180688C8302C080E001C081E0DF91BB
:101D7000CF910895CF93DF93EC01462F6E857F8539
:101D8000888999890E94F111882341F08A8920E28B
:101D9000829FC001112485559C4F02C080E090E0D5
:101DA000DF91CF9108950F931F93CF93DF93EC01B1
:101DB0008B018D81882311F080E040C0FB01878971
:101DC0008031B1F482E08D831F8A188E198E1A8EAD
:101DD000408D518D60E070E095E0440F551F661F07
:101DE000771F9A95D1F74B8B5C8B6D8B7E8B15C0D3
:101DF000803211F783E08D83FB01428D538D648D1A
:101E0000758D4F8B588F698F7A8F9E012D5E3F4F56
:101E1000C8010E94B012882379F21C8F0B8F81E0D9
:101E20008C831E821F82188619861A861B861C8642
:101E30001D861E861F86188A198A1A8ADF91CF91FD
:101E40001F910F9108954F925F926F927F92AF9280
:101E5000BF92CF92DF92EF92FF920F931F93CF9397
:101E6000DF93EC016A017B012D81222309F457C025
:101E70008B899C89AD89BE8984179507A607B7070A
:101E800008F44DC04EC08A859B85AC85BD85EB8D21
:101E9000FC8DE585F0E03996AC01BD01415051095A
:101EA000610971090E2E04C076956795579547957F
:101EB0000A94D2F7970186010150110921093109CD
:101EC00004C03695279517950795EA95D2F704171C
:101ED000150726073707B0F58F89988DA98DBA8D1C
:101EE0008E839F83A887B987280139015E0186E028
:101EF000A80EB11C411451046104710461F14E81BA
:101F00005F816885798595018B8D9C8D0E942C124F
:101F100091E0491A5108610871088111EBCF80E006
:101F20001FC02230C1F0C114D104E104F10409F052
:101F3000AACF1E821F82188619861A861B861C86C7
:101F40001D860DC0892B8A2B8B2B31F2041B150BA0
:101F5000260B370BC9CFCA86DB86EC86FD8681E06F
:101F6000DF91CF911F910F91FF90EF90DF90CF9075
:101F7000BF90AF907F906F905F904F9008950F93B8
:101F80001F93CF93DF93EC018D818823C9F18C815E
:101F900087FF30C061E0CE010E94BA0E8C0100972D
:101FA00079F18D81823048F44B895C896D897E8915
:101FB000F801448F558F668F778F4F89588D698DC3
:101FC0007A8DF801538F428F758B648BE091A20359
:101FD000F091A303309759F0B8016A5E7F4FC801B2
:101FE00048960995F801808D918D938B828B8C8119
:101FF0008F778C83DF91CF911F910F910C94B61145
:1020000080E0DF91CF911F910F9108952F923F9221
:102010004F925F926F927F928F929F92AF92BF92F8
:10202000CF92DF92EF92FF920F931F93CF93DF93A4
:1020300000D000D01F92CDB7DEB78C017B013A01F2
:10204000DC0115968C9115978130C9F414968C910A
:1020500081FF15C082FF1BC0F8014389548965893F
:10206000768982859385A485B58584179507A6070B
:10207000B70769F0C8010E94230F811108C081E0F1
:1020800090E0F8019383828380E090E046C1630191
:1020900080C0D8015B968D919C915C97FC01F48186
:1020A000F150B501A40129E07695679557954795BC
:1020B0002A95D1F7F423FD8321E09222FF2309F42E
:1020C00074C080E092E08819990956018C159D052D
:1020D00008F45C01D8015B96ED91FC915C97169633
:1020E0002D903D904D905C901997B2E02B1A3108DD
:1020F00041085108058404C0220C331C441C551CA3
:102100000A94D2F786859785A089B189280E391E51
:102110004A1E5B1EED812E0E311C411C511CA11468
:10212000F2E0BF0609F088C0809106019091070196
:10213000A0910801B091090182159305A405B50588
:1021400059F48FEF9FEFDC01809306019093070114
:10215000A0930801B09309019701B201A1018091F8
:10216000A9039091AA030E94420E882309F487CF05
:102170009EEFF91ACA18DB08F80182859385A485B9
:10218000B5858A0D9B1DA11DB11D82879387A487EC
:10219000B587D8011A968D909D90AD90BC901D97F3
:1021A000C114D10409F075CF8AC08114910409F0DB
:1021B00088CF16964D915D916D917C91199741153F
:1021C00051056105710559F457968D919D910D90BA
:1021D000BC91A02D0097A105B10541F521C09E013C
:1021E0002F5F3F4F0E942C12882309F44ECF898124
:1021F0009A81AB81BC81F801238D348DF901278947
:10220000203129F448EF5FEF60E070E004C048EF50
:102210005FEF6FEF7FE084179507A607B70730F0F1
:10222000C8010E94900E81114CCF29CFF8018683FE
:102230009783A087B18745CF8114910429F5D801F0
:102240001A964D915D916D917C911D9753968D914C
:102250009D910D90BC91A02D481759076A077B07E7
:1022600098F00E94B611882309F409CF2092060144
:102270003092070140920801509209018091A80311
:1022800081608093A80308C041E0C201B1010E94AF
:10229000F111882309F4F3CEC40185559C4FD70171
:1022A0009C012A0D3B1DFC01E217F30719F04D912B
:1022B0004193FACFE81BF90BEE0EFF1E5BCF53964E
:1022C0008D919D910D90BC91A02DF80124818815D0
:1022D0009905AA05BB0538F4838A948AA58AB68A2B
:1022E000206824830CC08091A2039091A303892BC2
:1022F00031F06114710419F02068F8012483D801C9
:1023000014968C9183FD02C0C30107C0C8010E94CE
:10231000BF0F882309F4B3CEF7CF0F900F900F9023
:102320000F900F90DF91CF911F910F91FF90EF9041
:10233000DF90CF90BF90AF909F908F907F906F90E5
:102340005F904F903F902F900895CF93DF931F920F
:10235000CDB7DEB7698341E050E0BE016F5F7F4FCC
:102360000E9406100F90DF91CF9108958091A803ED
:10237000882399F14091060150910701609108016D
:10238000709109012BEA33E08091A9039091AA038F
:102390000E94420E882319F14091A4035091A50395
:1023A0006091A6037091A703411551056105710560
:1023B00091F02BEA33E08091A9039091AA030E9447
:1023C000420E882361F01092A4031092A50310928C
:1023D000A6031092A7031092A80381E0089580E05D
:1023E0000895CF92DF92EF92FF92CF936B017C0121
:1023F000C42F8091060190910701A0910801B0912E
:1024000009018C159D05AE05BF05D1F00E94B611DE
:10241000811102C080E01AC02BEA33E0B701A601A7
:102420008091A9039091AA030E94BA0D882391F389
:10243000C0920601D0920701E0920801F0920901D2
:102440008091A8038C2B8093A80381E0CF91FF900B
:10245000EF90DF90CF9008958F929F92AF92BF92AE
:10246000CF92DF92EF92FF920F931F93CF93DF9360
:102470008C016A017B01E901FC0181859285A385BC
:10248000B4850196A11DB11D84179507A607B7074E
:1024900010F480E058C0F801438954896589768931
:1024A0008789803129F4BB27AF2D9E2D8D2D09C042
:1024B000D701C60127E0B695A795979587952A95E8
:1024C000D1F74C015D01840E951EA61EB71EC501F5
:1024D000B4018090060190900701A0900801B0908F
:1024E0000901681579058A059B0589F4F801878932
:1024F000803199F4DD24EE24FF24F601EE0FFF1F56
:10250000E555FC4F80819181A0E0B0E017C040E02C
:102510000E94F1118111EACFBCCFE894C7F8DD2405
:10252000EE24FF24F601EE0FFF1FEE0FFF1FE5550F
:10253000FC4F80819181A281B381BF708883998390
:10254000AA83BB8381E0DF91CF911F910F91FF9010
:10255000EF90DF90CF90BF90AF909F908F900895B5
:102560004F925F926F927F92AF92BF92CF92DF9223
:10257000EF92FF920F931F93CF93DF9300D000D081
:10258000CDB7DEB78C0149835A836B837C835901B5
:10259000C12CD12C7601412C42E0542E612C712C9F
:1025A00049815A816B817C819E012F5F3F4FC80119
:1025B0000E942C12882359F1D301C201F80105842D
:1025C00004C0880F991FAA1FBB1F0A94D2F7C80E18
:1025D000D91EEA1EFB1E49815A816B817C81878945
:1025E000803129F488EF9FEFA0E0B0E004C088EFCD
:1025F0009FEFAFEFBFE0481759076A077B0780F2EC
:10260000F501C082D182E282F38281E001C080E0E4
:102610000F900F900F900F90DF91CF911F910F911E
:10262000FF90EF90DF90CF90BF90AF907F906F9032
:102630005F904F9008954F925F926F927F928F922A
:102640009F92AF92BF92CF92DF92EF92FF920F9341
:102650001F93CF93DF93EC016A017B0128013901BD
:10266000423051056105710508F474C049855A85E9
:102670006B857C854F5F5F4F6F4F7F4F4C155D05BE
:102680006E057F0508F466C08B889C88AD88BE887F
:102690008F89803129F477276F2D5E2D4D2D09C04C
:1026A000B701A601E7E07695679557954795EA95B6
:1026B000D1F7840E951EA61EB71E409106015091BB
:1026C0000701609108017091090184169506A6061C
:1026D000B70671F48F89803199F4DD24EE24FF244C
:1026E000F601EE0FFF1FE555FC4F5182408218C0E6
:1026F00040E0C501B4010E94F1118111EBCF2AC065
:10270000E894C7F8DD24EE24FF24F601EE0FFF1F46
:10271000EE0FFF1FE555FC4F4082518262827382AB
:102720008091A80381608093A8038A89823080F019
:102730008D819E81AF81B885880D991DAA1DBB1D15
:102740008093A4039093A503A093A603B093A7033B
:1027500081E001C080E0DF91CF911F910F91FF9048
:10276000EF90DF90CF90BF90AF909F908F907F9031
:102770006F905F904F9008952F923F924F925F928B
:102780006F927F929F92AF92BF92CF92DF92EF9221
:10279000FF920F931F93CF93DF93CDB7DEB7609770
:1027A0000FB6F894DEBF0FBECDBF5C014D875E87CC
:1027B0006F87788B1901D9014D905D906D907C9059
:1027C000411451046104710431F0BFEF4B1A5B0AEC
:1027D0006B0A7B0A10C0FC014080518062807380CC
:1027E000992493940D851E852F8538890130110514
:1027F0002105310509F0912CD50119962D913D91B6
:102800004D915C911C972F5F3F4F4F4F5F4F298732
:102810003A874B875C87730162011D821E821F828B
:102820001886F50181859285A385B4850D811E8169
:102830002F813885081719072A073B0708F056C06B
:1028400029853A854B855C852C153D054E055F0530
:1028500050F4A2E0CA2ED12CE12CF12CB2E04B2E88
:10286000512C612C712C9E012F5F3F4FB701A601A7
:10287000C5010E942C128823C9F149815A816B81BC
:102880007C81D701C6010196A11DB11D452B462BA8
:10289000472B19F02C013D010FC0AC01BD014419BB
:1028A0005509660977090D851E852F8538894017DA
:1028B00051076207730779F02D813E814F8158855A
:1028C0002F5F3F4F4F4F5F4F2D833E834F8358877E
:1028D0006C017D01A6CF0FEF1FEF2FEF3FE0B70197
:1028E000A601C5010E941B13811118C080E041C0E0
:1028F000D701C6010197A109B1098D839E83AF83DA
:10290000B88797018601AC01BD01C5010E941B1368
:10291000882361F3CD80DE80EF80F8844C145D0461
:102920006E047F0428F3D1014D915D916D917C91EE
:10293000411551056105710599F4F10140825182FB
:10294000628273829920A1F0FFEF4F1A5F0A6F0A2B
:102950007F0AD5014D925D926D927C92139708C0CB
:1029600093018201C5010E941B138111E6CFBECFE6
:1029700081E060960FB6F894DEBF0FBECDBFDF9149
:10298000CF911F910F91FF90EF90DF90CF90BF906C
:10299000AF909F907F906F905F904F903F902F905F
:1029A00008958F929F92AF92BF92CF92DF92EF9253
:1029B000FF920F931F93CF93DF93EC01142F70932B
:1029C000AA036093A903442341F1453010F080E04D
:1029D000EFC040E060E070E0CB010E94F11188237D
:1029E000B1F320E1129FF0011124E75AFA4F8081E0
:1029F0008F7769F784859585A685B7858436910597
:102A0000A105B10520F3C084D184E284F384C1140C
:102A1000D104E104F10421F4DACFC12CD12C7601E8
:102A200040E0C701B6010E94F111882381F2809134
:102A3000B6039091B7038115924049F63091BB03DC
:102A4000332329F28091B9039091BA03892B09F4B9
:102A5000BECF2091B803222309F4B9CF3A8B2C833F
:102A60001D8630E041E050E06D85062FCA01062E3C
:102A700002C0880F991F0A94E2F72817390731F02E
:102A800081E0860F8D87683078F3A1CF2091C10354
:102A90003091C2032115310519F040E050E008C023
:102AA0002091CF033091D0034091D1035091D203B4
:102AB0002D833E834F8358878091B9039091BA0349
:102AC00046015701880E991EA11CB11C8B8A9C8A55
:102AD000AD8ABE8AE091BC03F091BD03F98FE88F07
:102AE000A091BB03B0E00E94B01A680D791D8A1D49
:102AF0009B1D6A8F7B8F8C8F9D8F15E0EE0FFF1FC4
:102B00001A95E1F7E150FE4FEF2FFF27E695DC0124
:102B1000CB018E0F9F1FA11DB11D8E879F87A88B94
:102B2000B98B8090BE039090BF038114910419F07B
:102B3000A12CB12C08C08090CB039090CC03A09026
:102B4000CD03B090CE03A7019601281B390B4A0B89
:102B50005B0BDA01C901880D991DAA1DBB1D04C0BC
:102B6000B695A795979587950A95D2F789879A87FD
:102B7000AB87BC87853F3FE09307A105B10510F403
:102B80008CE014C0853F9F4FA105B10510F480E192
:102B90000DC08091D7039091D803A091D903B09133
:102BA000DA038A8F9B8FAC8FBD8F80E28F8B81E0A1
:102BB000DF91CF911F910F91FF90EF90DF90CF9019
:102BC000BF90AF909F908F9008950E94AD048BEAC4
:102BD00095E00C94AA0649E06AE08BEA95E00C9433
:102BE00031061F93CF93DF93182FC62FD42F87E280
:102BF00092E00E9408026AE58BEE92E00E94210AB0
:102C00008823A9F0612F8BEE92E00E9497076C2F2A
:102C10008BEE92E00E947B086D2F8BEE92E00E947B
:102C2000A4088BEE92E00E94290A81E001C08FEF98
:102C3000DF91CF911F910895CF93DF938BEE92E0B8
:102C40000E94AB078823C9F08BEE92E00E94290A0C
:102C5000C0E0D0E06C2F8BEE92E00E946007811103
:102C60000DC06C2F8BEE92E00E947A07811105C097
:102C70002196CC30D10571F702C0C4EF8C2FDF91C3
:102C8000CF9108950F9361E083E00E94981707E0C9
:102C900026E045E063E08CE493E00E94570A882335
:102CA00011F081E001C08FEF0F9108951F93CF9332
:102CB000DF93EC016EEC71E082EC95E00E94681A03
:102CC000299618E0E091C205F091C3050190F081CA
:102CD000E02D6A9182EC95E00995115098F782EC0D
:102CE00095E0DF91CF911F910C94711A1F920F9272
:102CF0000FB60F9211242F933F938F939F93AF930F
:102D0000BF938091BA059091BB05A091BC05B0918D
:102D1000BD053091B90523E0230F2D3720F401962E
:102D2000A11DB11D05C026E8230F0296A11DB11DEE
:102D30002093B9058093BA059093BB05A093BC0579
:102D4000B093BD058091BE059091BF05A091C005CF
:102D5000B091C1050196A11DB11D8093BE05909350
:102D6000BF05A093C005B093C105BF91AF919F91DE
:102D70008F913F912F910F900FBE0F901F9018953C
:102D80002FB7F8946091BA057091BB058091BC058E
:102D90009091BD052FBF08953FB7F8948091BE056F
:102DA0009091BF05A091C005B091C10526B5A89B23
:102DB00005C02F3F19F00196A11DB11D3FBF662729
:102DC000782F892F9A2F620F711D811D911D42E06E
:102DD000660F771F881F991F4A95D1F708958F9224
:102DE0009F92AF92BF92CF92DF92EF92FF926B01D0
:102DF0007C010E94CC164B015C01C114D104E1049A
:102E0000F104F1F00E94871A0E94CC166819790922
:102E10008A099B09683E73408105910570F321E0A2
:102E2000C21AD108E108F10888EE880E83E0981EE6
:102E3000A11CB11CC114D104E104F10429F7DDCFB8
:102E4000FF90EF90DF90CF90BF90AF909F908F90CA
:102E500008958230910538F0880F991F880F991FC7
:102E600005970197F1F70895789484B5826084BD41
:102E700084B5816084BD85B5826085BD85B581607E
:102E800085BDEEE6F0E0808181608083E1E8F0E0DE
:102E90001082808182608083808181608083E0E80D
:102EA000F0E0808181608083E1EBF0E080818460EC
:102EB0008083E0EBF0E0808181608083EAE7F0E0EE
:102EC0008081846080838081826080838081816052
:102ED00080838081806880831092C1000895833050
:102EE00081F028F4813099F08230A1F00895873084
:102EF000A9F08830B9F08430D1F4809180008F7DC2
:102F000003C0809180008F7780938000089584B5FE
:102F10008F7702C084B58F7D84BD08958091B00005
:102F20008F7703C08091B0008F7D8093B0000895AB
:102F3000CF93DF9390E0FC01E458FF4F2491FC0114
:102F4000E057FF4F8491882349F190E0880F991F43
:102F5000FC01E854FF4FA591B49182559F4FFC01AD
:102F6000C591D4919FB7611108C0F8948C912095B8
:102F700082238C93888182230AC0623051F4F894B2
:102F80008C91322F309583238C938881822B888378
:102F900004C0F8948C91822B8C939FBFDF91CF91CA
:102FA00008950F931F93CF93DF931F92CDB7DEB792
:102FB000282F30E0F901E859FF4F8491F901E458D6
:102FC000FF4F1491F901E057FF4F04910023C9F01E
:102FD000882321F069830E946F176981E02FF0E058
:102FE000EE0FFF1FE255FF4FA591B4919FB7F894E4
:102FF0008C91611103C01095812301C0812B8C93AA
:103000009FBF0F90DF91CF911F910F910895CF93A4
:10301000DF93282F30E0F901E859FF4F8491F9013F
:10302000E458FF4FD491F901E057FF4FC491CC23EE
:1030300091F081110E946F17EC2FF0E0EE0FFF1F4F
:10304000EC55FF4FA591B4912C912D2381E090E098
:1030500021F480E002C080E090E0DF91CF910895FC
:10306000FC01818D228D90E0805C9F4F821B910935
:103070008F7399270895FC01918D828D981731F0F7
:10308000828DE80FF11D858D90E008958FEF9FEF01
:103090000895FC01918D828D981761F0828DDF017A
:1030A000A80FB11D5D968C91928D9F5F9F73928F3B
:1030B00090E008958FEF9FEF08958DEC99E1892BB3
:1030C00049F080E090E0892B29F00E94CD19811110
:1030D0000C9400000895FC01848DDF01A80FB11D40
:1030E000A35ABF4F2C91848D90E001968F7399273E
:1030F000848FA689B7892C93A089B1898C9180642B
:103100008C93938D848D981306C00288F389E02DEB
:1031100080818F7D80830895CF93DF93EC01888D2C
:103120008823C9F0EA89FB89808185FD05C0A889CB
:10313000B9898C9186FD0FC00FB607FCF5CF808151
:1031400085FFF2CFA889B9898C9185FFEDCFCE019B
:103150000E946B18E7CFDF91CF910895CF92DF9255
:10316000FF920F931F93CF93DF931F92CDB7DEB7DC
:103170006C0181E0D60158968C9358975B969C9190
:103180005B975C968C915C97981307C05096ED9175
:10319000FC915197808185FD2EC0F601038D10E0D2
:1031A0000F5F1F4F0F731127F02EF601848DF81259
:1031B00011C00FB607FCF9CFD6015096ED91FC91E6
:1031C0005197808185FFF1CFC60169830E946B18FA
:1031D0006981EBCF838DE80FF11DE35AFF4F6083C8
:1031E000D6015B960C935B975296ED91FC915397A9
:1031F000808180620CC0D6015696ED91FC91579764
:1032000060835096ED91FC9151978081806480831A
:1032100081E090E00F90DF91CF911F910F91FF908F
:10322000DF90CF900895BF92CF92DF92EF92FF92FE
:10323000CF93DF93EC016A017B01B22EE889F98913
:1032400082E08083411581EE580761057105A1F088
:1032500060E079E08DE390E0A70196010E94881A72
:1032600021503109410951095695479537952795C0
:10327000211580E1380798F0E889F989108260E823
:1032800074E88EE190E0A70196010E94881A21500F
:103290003109410951095695479537952795EC8590
:1032A000FD853083EE85FF852083188EEC89FD89AE
:1032B000B082EA89FB89808180618083EA89FB8909
:1032C000808188608083EA89FB898081806880832F
:1032D000EA89FB8980818F7D8083DF91CF91FF9088
:1032E000EF90DF90CF90BF9008951F920F920FB68E
:1032F0000F9211242F938F939F93EF93FF93E0915D
:10330000D205F091D3058081E091D805F091D905DF
:1033100082FD12C090818091DB058F5F8F732091B9
:10332000DC05821751F0E091DB05F0E0EE53FA4F37
:10333000958F8093DB0501C08081FF91EF919F9174
:103340008F912F910F900FBE0F901F9018951F9285
:103350000F920FB60F9211242F933F934F935F93C9
:103360006F937F938F939F93AF93BF93EF93FF934D
:1033700082EC95E00E946B18FF91EF91BF91AF91A5
:103380009F918F917F916F915F914F913F912F917D
:103390000F900FBE0F901F90189582EC95E00E9441
:1033A000301821E0892B09F420E0822F0895109233
:1033B000C5051092C40588EE93E0A0E0B0E08093CC
:1033C000C6059093C705A093C805B093C9058CEEB8
:1033D00091E09093C3058093C20585EC90E09093B3
:1033E000CF058093CE0584EC90E09093D105809337
:1033F000D00580EC90E09093D3058093D20581ECCA
:1034000090E09093D5058093D40582EC90E0909362
:10341000D7058093D60586EC90E09093D9058093EC
:10342000D8051092DB051092DC051092DD05109294
:10343000DE05089508950E9434170E941A1A0E940A
:10344000EB00CDE5D8E10E9449012097E1F30E940D
:103450005D18F9CFCF92DF92EF92FF920F931F93F7
:10346000CF93DF937C016A01EB0100E010E00C15C3
:103470001D0571F06991D701ED91FC910190F081EA
:10348000E02DC7010995892B19F00F5F1F4FEFCF72
:10349000C801DF91CF911F910F91FF90EF90DF90C6
:1034A000CF9008956115710581F0DB010D9000202A
:1034B000E9F7AD0141505109461B570BDC01ED9175
:1034C000FC910280F381E02D099480E090E0089562
:1034D0000C94521ADC01ED91FC910190F081E02DE9
:1034E000099468EF71E00C94521A0F931F93CF93D5
:1034F000DF93EC010E94521A8C01CE010E94711AD6
:10350000800F911FDF91CF911F910F910895089522
:10351000A1E21A2EAA1BBB1BFD010DC0AA1FBB1FD7
:10352000EE1FFF1FA217B307E407F50720F0A21B49
:10353000B30BE40BF50B661F771F881F991F1A94B6
:1035400069F760957095809590959B01AC01BD01E0
:10355000CF010895EE0FFF1F0590F491E02D09941F
:103560000E94BB1AA59F900DB49F900DA49F800D43
:10357000911D11240895A29FB001B39FC001A39F84
:10358000700D811D1124911DB29F700D811D11249C
:08359000911D0895F894FFCF8E
:1035980000005F068000FFFFFFFF000040001400EE
:1035A80054004368617241727261793A200056652D
:1035B8007273696F6E20312E3000496E69746961CB
:1035C8006C697A696E672E2E2E00446F6E652049ED
:1035D8006E697469616C6174696F6E003D3D3D3D53
:1035E8003D3D3D3D3D3D3D3D3D3D3D3D3D3D3D3D03
:1035F8003D3D3D3D0033204D616E616765204D6F57
:103608006E65792034205472616E73666572204D40
:103618006F6E657900312041444420506C617965B2
:103628007220322044656C65746520506C61796540
:10363800720043686F6F7365204D6F64650000000A
:103648000000C9019C01710179018C019B010000F6
:103658000000A0052A1A00000000A5112A1A777296
:103668006974696E6720746F2073643A2000686516
:103678006C6C6F2E7478740000000000AE182A1A63
:10368800301849183B188C180D0A006E616E0069D5
:083698006E66006F766600000B
:00000001FF
