:100000000C94AF000C94D7000C94D7000C94D7003C
:100010000C94D7000C94D7000C94D7000C94D70004
:100020000C94D7000C94D7000C94D7000C94D700F4
:100030000C94D7000C94D7000C94D7000C94D700E4
:100040000C944E240C94D7000C944D270C947F27CD
:100050000C94D7000C94D7000C94D7000C94D700C4
:100060000C948E040C94D70007634236B79BD8A734
:100070001A39685618AEBAAB558C1D3CB7CC5763CD
:10008000BD6DEDFD753EF6177231BF000000803F7B
:1000900008000000BE922449123EABAAAA2ABECD97
:1000A000CCCC4C3E00000080BEABAAAAAA3E000009
:1000B0000000BF000000803F000000000008417801
:1000C000D3BB4387D1133D190E3CC3BD4282AD2B38
:1000D0003E68EC8276BED98FE1A93E4C80EFFFBE30
:1000E00001C4FF7F3F00000000007C3C3E5E2B3DD2
:1000F0003F2F5B5D3B2C2A225C00000000080002C1
:1001000001000003040700000000000000000102DD
:100110000408102040800102040810200102040895
:100120001020040404040404040402020202020273
:10013000030303030303000000002300260029003B
:1001400000000000250028002B0000000000240013
:1001500027002A007202A40325103520AF2711249E
:100160001FBECFEFD8E0DEBFCDBF12E0A0E0B1E010
:10017000E2E2FCE502C005900D92AE3AB107D9F774
:1001800026E0AEEAB2E001C01D92AC3BB207E1F757
:1001900011E0CEE5D1E004C02297FE010E94A32C1D
:1001A000C435D107C9F70E94F3270C940F2E0C9485
:1001B00000000F931F93CF93DF938C01EB018EEA26
:1001C00092E00E946B0640E060E08EEA92E00E94BE
:1001D0007906B8018EEA92E00E94402841E060E092
:1001E0008EEA92E00E947906BE018EEA92E0DF91EB
:1001F000CF911F910F910C944028BF92CF92DF9224
:10020000EF92FF920F931F93CF93DF9300D000D014
:10021000CDB7DEB71091C202BB24BA94B10EC12C87
:10022000D12CE12CF12C00E001170CF041C06B2D1A
:10023000772767FD7095872F972F0E942B2A9B01A8
:10024000AC0160E070E080E291E40E941A2B9B0117
:10025000AC01B601C70129833A834B835C830E94BA
:100260002B2A6B017C01E02FFF27E7FDF095E4537B
:10027000FD4F6081772767FD70956053710988276E
:1002800077FD8095982F0E942B2A29813A814B81F6
:100290005C810E94B72A9B01AC01C701B6010E9494
:1002A0002C290E94F829BA940F5F6B017C01BCCF06
:1002B000C092BE02D092BF02E092C002F092C10290
:1002C0000F900F900F900F90DF91CF911F910F9192
:1002D000FF90EF90DF90CF90BF900895ECECF2E0AC
:1002E000119282E0E53DF807D9F7E3ECF2E080E314
:1002F000819392E0EC3CF907D9F71092C20208957D
:1003000026E040E855E260E070E08BE196E00E9474
:10031000EB268EEA92E00E94B4068EEA92E00E94FA
:100320001E0662E171E08EE191E00E94D9000E9418
:100330006E010E9400200E9475218F3071F027E02D
:1003400046E065E083E00E9485218F3F31F06CED4F
:1003500075E080E090E00C94C72408950E9444204A
:10036000853639F18B3031F40E94FD000E946E0118
:100370008BE008959091C2028A3059F49150909385
:10038000C202E92FFF27E7FDF095E453FD4F1082ED
:100390000895993069F0E92FFF27E7FDF095E453C0
:1003A000FD4F20E3280F20839F5F9093C2020895A2
:1003B000089585E60895CF936EE271E08EE491E0B2
:1003C0000E94D90064EF71E080E090E00E94C724B1
:1003D0000E94AE01C82F8EEA92E00E946B066CEC80
:1003E00072E08BE691E00E94D90068EC70E080E05A
:1003F00090E00E94C724CB3059F7CF910895CF9356
:10040000DF93CDB7DEB7AE970FB6F894DEBF0FBE61
:10041000CDBFCE0101960E94F20C0E94DB0160EA82
:1004200072E087E791E00E94D9004091BE025091AE
:10043000BF026091C0027091C1022AE030E08EEAF2
:1004400092E00E94AE2868EB7BE080E090E00E94A2
:10045000C7248091BE029091BF02A091C002B091CA
:10046000C1020197A105B10581F56FE771E08BE845
:1004700091E00E94D9008AEB92E00E94062060EA97
:1004800072E087E991E00E94D90068EE73E080E0B5
:1004900090E00E94C724BE016F5F7F4F8AEB92E01D
:1004A0000E943B23882329F063EA71E08CEA91E003
:1004B00004C06BEB71E082EC91E00E94D90060ED2A
:1004C00077E080E090E00E94C724CE0101960E9470
:1004D000050DAE960FB6F894DEBF0FBECDBFDF910F
:1004E000CF9108950F9300E022E040E167E28EEAA9
:1004F00092E00E94F1050F9108958091050390E02C
:1005000020910603821B9109089520910603809192
:100510000503281750F4E22FF0E0E95FFC4F8081DB
:1005200090E02F5F2093060308958FEF9FEF0895CB
:10053000E091060380910503E81730F4F0E0E95FED
:10054000FC4F808190E008958FEF9FEF089508950C
:10055000CF92DF92EF92FF920F931F93CF93DF938F
:100560007C01CB018A012091E102222389F0EB0179
:100570006B01C40ED51ECC15DD0569F06991D7015C
:10058000ED91FC910190F081E02DC7010995F3CF29
:10059000642F0E946504C801DF91CF911F910F91D4
:1005A000FF90EF90DF90CF900895CF93DF931F924D
:1005B000CDB7DEB769832091E1022223D1F02091EB
:1005C000E202203240F021E030E0FC01338322835C
:1005D00080E090E015C08091E302E82FF0E0EC515C
:1005E000FD4F998190838F5F8093E3028093E202B5
:1005F00005C061E0CE0101960E94650481E090E0B3
:100600000F90DF91CF910895FC011382128248EE82
:1006100053E060E070E0448355836683778385ED23
:1006200091E0918380830895109206031092050350
:100630001092E3021092E2020C94A80381E08093EE
:10064000E102609304031092E3021092E202089523
:100650000C941E030F93062F21E04091E20264EEFA
:1006600072E0809104030E940E041092E302109243
:10067000E2021092E1020F9108958F929F92AF9241
:10068000BF92CF92DF92EF92FF920F931F93CF937F
:10069000DF93EC01F62ED42E48015901EE2019F11A
:1006A0000E941E031E2D143008F013E01150B8F004
:1006B000E881F98128E0129FB0011124A50194017D
:1006C00004C056954795379527956A95D2F7CA0184
:1006D000B9010190F081E02DCE010995E7CF60E0EE
:1006E000CE010E942A034D2D413208F040E22C2D0C
:1006F00067E073E08F2D0E94C6031092060380937B
:100700000503DF91CF911F910F91FF90EF90DF9044
:10071000CF90BF90AF909F908F900895CF92EF921F
:100720000F931F93C22EE12C00E010E098010E946D
:100730003D031F910F91EF90CF90089521E00C940D
:100740008E0361E00C942A0385ED92E00C9404037F
:100750001092940381E0809392031092910361E0E0
:1007600082E10E94A92561E083E10E94A925E9EBCD
:10077000F0E080818E7F808380818D7F808388E41C
:100780008093B80085E48093BC000895413208F05E
:1007900043C0909194039111FCCF91E09093940306
:1007A000209392032FEF2093270310926C03240FC2
:1007B00020936B039093930390919303880F892B5D
:1007C0008093930380919103813061F4109291039F
:1007D000809193038093BB008091BC0083FDF8CF90
:1007E00085EC01C085EE8093BC008091940381303C
:1007F000E1F380916C03841710F440916C032DE6B3
:1008000033E0FB01D9018A2F821B841718F48D91E4
:100810008193F9CF842F089580E008950F9341329A
:1008200008F04AC0909194039111FCCF92E090930C
:100830009403009392039FEF9093270310926C030D
:1008400040936B03FB016DE673E0DB019A2F961B6F
:10085000941718F491919D93F9CF1092930390916E
:100860009303880F892B80939303809191038130A8
:1008700061F410929103809193038093BB00809167
:10088000BC0083FDF8CF85EC01C085EE8093BC00F1
:10089000222321F0809194038230E1F38091270399
:1008A0008F3F61F080912703803251F080912703C0
:1008B000803341F483E007C081E005C080E003C0DD
:1008C00082E001C084E00F910895613298F4209194
:1008D0009403243089F460934903FC018BE493E092
:1008E000DC012A2F281B261718F421912D93F9CF0C
:1008F00080E0089581E0089582E0089585ED809379
:10090000BC008091BC0084FDFCCF1092940308953C
:1009100085EC8093BC001092940308951F920F926F
:100920000FB60F9211242F933F934F935F936F93C2
:100930007F938F939F93AF93BF93EF93FF93809198
:10094000B900887F803609F49EC078F5883209F4B2
:100950005DC090F4803109F456C038F4882309F45E
:10096000F5C0883009F44FC0F5C0883109F44EC095
:10097000803209F45FC0EEC0803409F46AC058F4D4
:10098000803309F457C0883309F0E4C0809327030B
:100990000E948804DFC0803509F44FC0883509F40F
:1009A0005DC0883409F0D6C0D3C0883909F4C4C00A
:1009B000A8F4883709F467C038F4883609F463C0AE
:1009C000803709F460C0C6C0883809F4B5C08039E2
:1009D00009F45FC0803809F0BDC05BC0803B09F4FA
:1009E00083C038F4803A09F466C0883A09F47CC0C0
:1009F000B1C0803C09F4A4C0883C09F4A1C0883B84
:100A000009F487C0A7C08091930310C090916C0334
:100A100080916B03981770F5E0916C0381E08E0F65
:100A200080936C03F0E0E359FC4F80818093BB001E
:100A300085EC83C0809327038BC0E0916C0381E039
:100A40008E0F80936C038091BB00F0E0E359FC4F64
:100A5000808390916C0380916B036BC0E0916C0379
:100A600081E08E0F80936C038091BB00F0E0E3592E
:100A7000FC4F80838091920381116AC081E0809352
:100A8000910384EA5EC083E080939403109228036C
:100A9000CFCF80912803803208F04EC0E091280328
:100AA00081E08E0F809328038091BB00F0E0E75D2A
:100AB000FC4F8083BDCF0E94880480912803803240
:100AC00030F4E0912803F0E0E75DFC4F1082609184
:100AD000280370E0E0918D03F0918E0389E293E0AA
:100AE00009951092280336C084E0809394031092F5
:100AF0004A0310924903E0918F03F0919003099506
:100B000080914903811105C081E0809349031092CF
:100B10004B03E0914A0381E08E0F80934A03F0E09B
:100B2000E55BFC4F80818093BB0090914A038091EC
:100B30004903981708F47CCF85E88093BC000AC06D
:100B400085EC8093BC001092940304C0109227039C
:100B50000E947E04FF91EF91BF91AF919F918F9181
:100B60007F916F915F914F913F912F910F900FBEA9
:100B70000F901F901895CF93CFB7F894809198035A
:100B8000811127C0ECE2F1E08491E8E1F1E0949179
:100B9000E82FF0E0EE0FFF1FE65BFE4FA591B4914A
:100BA0008C91892321F461E08AE00E94A92561E00B
:100BB0008AE00E9470258CB580618CBD8CB5806404
:100BC0008CBD61E08DE00E94702561E08BE00E94A9
:100BD0007025809198038F5F80939803CFBFCF914A
:100BE00008950F93FC011382128285EE91E09183A8
:100BF0008083648340872187028788E083870F9101
:100C000008951F93CF93DF93EC01162F6C8185ED30
:100C100092E00E941E03E091D502F091D6026B850E
:100C2000612B0190F081E02D85ED92E0099585ED35
:100C300092E0DF91CF911F910C94A10328E0FC0179
:100C4000238760E00C9401061F93CF93DF93EC01A0
:100C5000162F64600E94010681E090E00E94012549
:100C6000612F6B7FCE010E94010682E390E0DF914D
:100C7000CF911F910C9401251F93CF93DF93EC012B
:100C8000162F0E940106612FCE01DF91CF911F9197
:100C90000C942406EF92FF921F93CF93DF931F9241
:100CA000CDB7DEB77C01162F607F642B49830E948D
:100CB0003C0680E1189FB00111244981642BC701D3
:100CC0000F90DF91CF911F91FF90EF900C943C0615
:100CD00040E00C944A0661E00E94680680ED97E0CF
:100CE0000C94012562E00E94680680ED97E00C9468
:100CF0000125CF93DF93CDB7DEB728970FB6F894D1
:100D0000DEBF0FBECDBF28E0EAE0F1E0DE011196C4
:100D100001900D922A95E1F7FC012185241710F42A
:100D20004FEF420FFE013196E40FF11DE40FF11D6C
:100D30002081260F2068622F28960FB6F894DEBF18
:100D40000FBECDBFDF91CF910C946806FC01668188
:100D5000262F246026836C600C94680641E00E9474
:100D60004A0681E090E00895CF93DF93EC0185ED92
:100D700092E00E9414031D828985823010F098E071
:100D80009D839A85992329F0813019F48D8184609F
:100D90008D8362E370E080E090E00E94C7246B8561
:100DA000CE010E94010668EE73E080E090E00E94B0
:100DB000C72460E3CE010E943C0684E991E10E94D1
:100DC000012560E3CE010E943C0684E991E10E9486
:100DD000012560E3CE010E943C0686E990E00E9476
:100DE000012560E2CE010E943C066D816062CE0169
:100DF0000E94680684E08E83CE010E94A606CE0182
:100E00000E946B0682E08F8366E0CE010E94680636
:100E1000CE01DF91CF910C9472062091970322238B
:100E200099F03FB7F89420919703213059F42DB3EE
:100E3000209395034DB320919603209524232DBB39
:100E40003FBF02C0309395038CBD9DBD08958EBDFC
:100E500000000DB407FEFDCF8EB508958091970375
:100E6000882361F09FB7F8942091970380919503B0
:100E7000213019F48DBB9FBF08958FBF08957F92D5
:100E80008F929F92AF92BF92CF92DF92EF92FF929A
:100E90000F931F93CF93DF936C01162F942EE901CC
:100EA0001E77106883E590E00E940D0760E0F60170
:100EB00084850E94A9259A94812F0E9427077C2E61
:100EC000EC2EFD2EAA24A394B12C8E2D8719891502
:100ED00028F581111AC00023C1F0802F812C8830A1
:100EE00048F49501082E01C0220F0A94EAF7822ADD
:100EF0008F5FF5CF812F0E942707982D909528812D
:100F000092238821982B988305C0812F0E94270760
:100F1000F7018083FFEFEF1AFF0AD7CFC90DD11D6C
:100F200080E00E942707888361E0F60184850E94A3
:100F3000A925DF91CF911F910F91FF90EF90DF9046
:100F4000CF90BF90AF909F908F907F900C942E0782
:100F5000FC01648745870895EF92FF921F93CF931A
:100F6000DF931F92CDB7DEB77C01162F83E590E0AB
:100F700049830E940D0760E0F70184850E94A9253E
:100F8000812F8E770E9427074981842F0E9427078F
:100F900061E0F70184850E94A9250F90DF91CF9130
:100FA0001F91FF90EF900C942E07CF92DF92EF925B
:100FB000FF920F931F93CF93DF9300D0CDB7DEB78F
:100FC0008C01E62EF42E83E590E029833A830E947B
:100FD0000D0760E0F80184850E94A9258E2D8E778B
:100FE0000E9427072981E22EC22E3A81D32E8C2D12
:100FF0008E198F1530F4F60181916F010E94270739
:10100000F6CF61E0F80184850E94A9250F900F902A
:10101000DF91CF911F910F91FF90EF90DF90CF90D4
:101020000C942E071F93CF93DF93EC01162F83E5CB
:1010300090E00E940D0760E08C850E94A925812F19
:101040008E7780680E94270780E00E942707182F6C
:1010500061E08C850E94A9250E942E07812FDF91D7
:10106000CF911F9108950F9341110E943F070F9157
:101070000895EF92FF921F93CF93DF931F92CDB706
:10108000DEB77C01162F49830E9412084981482B44
:10109000612FC7010F90DF91CF911F91FF90EF90CB
:1010A0000C94AC07EF92FF921F93CF93DF931F92A4
:1010B000CDB7DEB77C01162F49830E941208498103
:1010C00040954823612FC7010F90DF91CF911F9169
:1010D000FF90EF900C94AC07DF92EF92FF920F938A
:1010E0001F93CF93DF93EC018B01D42E790140E065
:1010F00062E00E94AC0744E06AE0CE010E94AC07C7
:1011000040E864E1CE010E94390898014D2D62E16A
:10111000CE010E94D50743E062E0CE010E94AC07F9
:1011200008E813E16AE0CE010E94120882FD05C0C2
:1011300001501109B9F783E012C040E062E0CE012E
:101140000E94AC0764E4CE010E941208F70180837C
:1011500062E4CE010E941208F701818380E0DF91F2
:10116000CF911F910F91FF90EF90DF900895CF9353
:10117000DF93EC014FE062E00E94AC0762E370E0B5
:1011800080E090E00E94C72462E0CE010E94120835
:1011900084FDFACFDF91CF910895CF93DF93EC01D7
:1011A00068E20E941208982F9370933041F0482F04
:1011B000436068E2CE01DF91CF910C94AC07DF91E0
:1011C000CF910895CF93DF93EC0161E08C850E946D
:1011D000702561E08C850E94A92561E08D850E94C3
:1011E00070258D850E94DF25892B59F461E08D855E
:1011F0000E94A92562E370E080E090E00E94C7248D
:1012000003C0CE010E94B70840E864E5CE010E9409
:10121000AC0749EA66E5CE010E94AC0743E068E509
:10122000CE010E94AC0748EE6AE5CE010E94AC07F1
:1012300040E46AE2CE010E94AC074DE362E2CE01D7
:101240000E94AC07CE01DF91CF910C94CD082F9274
:101250003F925F926F927F928F929F92AF92BF92D6
:10126000CF92DF92EF92FF920F931F93CF93DF9372
:1012700000D000D0CDB7DEB73C01962E542E302ED4
:10128000082DA114B10419F0F501408101C040E01E
:10129000242EF0E10F9F200C112440E062E0C301F6
:1012A0002B833C830E94AC074FE768E0C3010E9498
:1012B000AC0740E864E1C3010E9439082B813C81FE
:1012C000432D62E1C3010E94D507422D6AE1C301AB
:1012D0000E94AC07492D62E0C3010E94AC078CE07C
:1012E000981205C040E86AE1C3010E94390890EDF8
:1012F000292E97E0392E68E0C3010E941208982F2A
:10130000952139F480FD62C0E1E02E1A310899F789
:101310005DC06CE0C3010E941208982E837109F031
:1013200057C0E114F104F1F0C114D104D9F064E123
:10133000C3010E941208482FF6018081841708F427
:1013400049C04083970162E1C3010E94330868E10C
:10135000C3010E941208182F1770A114B10411F0D4
:10136000F501108393FC38C0E114F104B9F1C11404
:10137000D104A1F1888D882389F1F60140814130A3
:1013800019F4143019F420C0423010F487E027C05B
:101390001111FCCF42509E012F5F3F4FB701C30197
:1013A0000E946C0881111BC0F6018081E80EF11CBF
:1013B000F7013297908189819813E8CF3196908117
:1013C0008A819813E3CF0AC08FEF09C083E007C07A
:1013D00081E005C084E003C082E001C080E00F909E
:1013E0000F900F900F90DF91CF911F910F91FF9071
:1013F000EF90DF90CF90BF90AF909F908F907F90B5
:101400006F905F903F902F9008958F92AF92BF9210
:10141000CF92DF92EF92FF920F931F93AF928C2C9B
:10142000570168017901042F9B0140E36CE00E94A1
:1014300027090F901F910F91FF90EF90DF90CF90B1
:10144000BF90AF908F9008954F925F926F927F926E
:101450008F929F92AF92CF92EF92FF920F931F9332
:10146000CF93DF9300D0CDB7DEB73C016A832A016A
:1014700049014115510529F1F9018081823008F1B6
:1014800040E86CE1C3010E94520887E08983A12CE7
:10149000C12CCE0101967C018401920141E0BE0184
:1014A0006E5F7F4FC3010E94050A81110DC0F401D8
:1014B0008081823041F481E09981911105C080E002
:1014C00003C084E001C081E00F900F90DF91CF91C5
:1014D0001F910F91FF90EF90CF90AF909F908F90C2
:1014E0007F906F905F904F9008959A01AB0166E2F4
:1014F0000C94240A2F923F924F925F926F927F92A8
:101500008F929F92AF92BF92CF92DF92EF92FF9213
:101510000F931F93CF93DF93CDB7DEB72D970FB601
:10152000F894DEBF0FBECDBF3C012B01342E20E569
:10153000241708F409C140E86CE10E945208BB245A
:10154000B39432E0B31691F043E0B416E1F081E0D9
:10155000B812FEC083E989833320D1F041E0D20183
:101560008C91853008F440E0D12C17C085E989833F
:10157000332081F041E0F2018081883008F440E0BE
:1015800073E0D72E0AC087E9898366E0D62E04C0AF
:10159000D12C02C053E0D52E40E0532DF8EFDF9E52
:1015A000500D112457FD50E0442321F088E88B832F
:1015B00073E001C072E091E0852F877009F490E03C
:1015C000852F859585958595890F21F4442311F103
:1015D000585F20C0442311F063E001C064E0861727
:1015E00008F4682F80E090E092012D0D311DE72F67
:1015F000E80FA1E0B0E0AC0FBD1FAE0FB11DFD01C3
:10160000D901A80FB91F1196AC91A0830196861736
:1016100070F3DCCF43E0242E5032FCF0B0E7BA8305
:101620008C819B8189279D8189279E8189278F8332
:101630009E01285F3F4F47E0BE016F5F7F4FC301B0
:101640005D870E946C085D858111CDC01B862A864E
:10165000FE0137964F0179E01EC0952F97709B874A
:10166000252F25952595259582E0820F392FF0E1CC
:101670008F9F300D11243A8371E0911101C070E009
:10168000780F88248394912C8C0E9D1E880E911CBB
:1016900087E0821B8A87CB844C2D4295407F4C0D7E
:1016A0006AE1C3015D877C870E94AC07A12C9E0183
:1016B000255F3F4F79018E01065F1F4F94017C85A6
:1016C000472FBE016F5F7F4FC3010E94050A5D85F2
:1016D0008230A1F56CE1C3010E9412085D8585FD91
:1016E00035C0482F4F7109F440E2842F90E0252F38
:1016F000332727FD30952817390754F5542F0197C4
:1017000087709927242F2595259525952F5F31E002
:10171000811101C030E0230FE1E0F0E0EC0FFD1F8C
:10172000E20FF11DA1E0B0E002C0AA0FBB1F8A9535
:10173000E2F7CD019081982B90836ECF811153C039
:10174000503244F450E26ACF86E04DC082E04BC094
:1017500085E049C08B81883819F052E044E002C02E
:1017600053E043E080E090E092012D0D311DF9013E
:10177000E80FF91F652F680FA1E0B0E0AC0FBD1FA7
:10178000A60FB11D6C9161830196841780F38A8541
:10179000833031F58B85811123C09E012D5F3F4F32
:1017A00041E0B401C3010E946C0881111CC09B81FF
:1017B000F4018181981316C09C818281981312C014
:1017C000808182FF02C0B394BCCED2011B968C9361
:1017D0001B978B2D880F8B0D8F5F8C9380E003C040
:1017E00081E001C087E02D960FB6F894DEBF0FBEF2
:1017F000CDBFDF91CF911F910F91FF90EF90DF90C0
:10180000CF90BF90AF909F908F907F906F905F90A0
:101810004F903F902F900895CF93DF9300D01F9269
:10182000CDB7DEB722E02B83AE014D5F5F4FBE0127
:101830006F5F7F4F0E94750A882331F091E08230FC
:1018400009F090E0892F01C081E00F900F900F9078
:10185000DF91CF91089540E0BC010E947A0A91E0A7
:10186000811190E0892F0895CF93DF931F92CDB718
:10187000DEB76983DC01ED91FC910280F381E02DFC
:1018800041E050E0BE016F5F7F4F09950F90DF91FF
:10189000CF910895CF93DF93EC01898D9A8D0097B6
:1018A00059F0FC01138212820E94A519E98DFA8D6C
:1018B00022813381232B31F081E090E09B838A8366
:1018C00080E090E0DF91CF910895FC01818D928DB1
:1018D000009711F00C9445170895CF93DF931F9252
:1018E000CDB7DEB741E050E0BE016F5F7F4F0E9491
:1018F0005615019719F4898190E002C08FEF9FEF90
:101900000F90DF91CF910895FC01818D928D00970A
:1019100011F00C946D0C8FEF9FEF08950F931F93B0
:10192000CF93DF938C01FC01818D928D0097B9F0EC
:101930000E946D0CEC018F3FFFEF9F0799F0F801BB
:10194000818D928DFC01428553856485758541505A
:101950005109610971090E94A916CE0105C080E0F4
:1019600090E002C08FEF9FEFDF91CF911F910F9119
:101970000895CF92DF92EF92FF920F931F93CF9330
:10198000DF93EC017B016A011B821A8208EE13E0EF
:1019900020E030E00C831D832E833F838DEE91E0A9
:1019A000998388838DE190E00E94C12C9A8F898F62
:1019B000009779F02DE1F701DC0101900D922A9555
:1019C000E1F74CE050E0B601CE010C960E94002EEB
:1019D000188EDF91CF911F910F91FF90EF90DF90C4
:1019E000CF900895FC011382128248EE53E060E02C
:1019F00070E044835583668377838DEE91E0918315
:101A00008083128E118E148608952DEE31E0FC0134
:101A1000318320830895DC015996ED91FC915A970A
:101A2000309729F0628573858485958508956FEFD9
:101A30007FEFCB010895DC015996ED91FC915A9707
:101A4000309729F06389748985899689089560E0C3
:101A500070E0CB010895CF92DF92EF92FF92CF9387
:101A6000DF93EC01898D9A8D892BD9F0CE010E94EC
:101A70001B0D6B017C01CE010E940B0DA70196018D
:101A8000261B370B480B590BDA01C901811530E8C9
:101A90009307A105B10538F08FEF9FE7A0E0B0E014
:101AA00002C080E090E0DF91CF91FF90EF90DF9057
:101AB000CF900895CF93DF93EC01898D9A8D009795
:101AC00041F00E948C17898D9A8D0E94592D1A8E93
:101AD000198EDF91CF910895DC015996ED91FC911B
:101AE0005A97309721F081E09581911101C080E0F3
:101AF00008951F93CF93DF93CDB7DEB76D970FB6E1
:101B0000F894DEBF0FBECDBFAB011C821B822FEF4E
:101B100031E03A8329831E8221E0BC01CE01019687
:101B20000E94C01811E0811102C010E004C0CE0173
:101B300001960E948C17812F6D960FB6F894DEBF28
:101B40000FBECDBFDF91CF911F910895CF93DF934B
:101B5000FB0120813181FC01E20FF31FE081EF32B4
:101B600011F42F5F3F4FDA01E0E0F0E0EC01C20F2B
:101B7000D31FC881CF3249F0CC2339F031962F5F83
:101B80003F4FCD93EC30F10589F7E40FF51F10823C
:101B9000FC01E20FF31F40814F3211F42F5F3F4FE2
:101BA000FB0131832083FC01E20FF31F81E0908170
:101BB000911101C080E0DF91CF9108954F925F9223
:101BC0006F927F928F929F92AF92BF92CF92DF924D
:101BD000EF92FF920F931F93CF93DF93CDB7DEB7B2
:101BE000C954D1090FB6F894DEBF0FBECDBF5C015A
:101BF0006B013A01490119A218A28FEF91E09F8F62
:101C00008E8F1BA21C821B829A8389831E822A9636
:101C10001FAE1EAE2A978B017E018EE1E80EF11CED
:101C200044244394AE01455C5F4FBE01685B7F4F27
:101C3000C5010E94A60D582E482F44259401BE01CF
:101C4000655C7F4FC801F3010995811108C00C152F
:101C50001D0519F0C8010E948C1780E027C055208F
:101C6000B9F021E0AE01455C5F4FB801C7010E94A9
:101C7000C018582E0C151D0599F0C8010E948C172C
:101C8000552059F3902F812F8701E92EF82ECACFC6
:101C90000C151D0519F0C8010E948C1781E006C0C3
:101CA0008823D9F28E010F5F1F4FECCFC75BDF4F48
:101CB0000FB6F894DEBF0FBECDBFDF91CF911F915D
:101CC0000F91FF90EF90DF90CF90BF90AF909F90DB
:101CD0008F907F906F905F904F900895EF920F9349
:101CE0001F93CF93DF93EC01E02E022F242F462F7A
:101CF00061E00E948811811102C080E01DC08E0148
:101D0000035F1F4F41E0BE01C8010E94EC1E882303
:101D100059F0B801CE018B960E94061591E0811111
:101D200001C090E0892F08C040E0BE01C8010E94B8
:101D3000EC1E882311F3EDCFDF91CF911F910F910E
:101D4000EF900895FC01DB0112968D919C91139701
:101D5000938382838FEF91E09183808314968C919B
:101D60001497848315968C911597858316964D91BB
:101D70005D916D917C911997468357836087718738
:101D80001A964D915D916D917C911D974287538775
:101D9000648775871E964D915D916D917C915197E9
:101DA00046875787608B718B52968C915297828BA6
:101DB00053964D915D916D917C915697438B548BC9
:101DC000658B768B57964D915D916D917C915A976D
:101DD000478B508F618F728F5B968D919C915C9732
:101DE000948F838F08954F925F926F927F928F921C
:101DF0009F92AF92BF92CF92DF92EF92FF920F939A
:101E00001F93CF93DF93CDB7DEB7C754D1090FB679
:101E1000F894DEBF0FBECDBF6C014A013901655D8C
:101E20007F4F5E018EE1A80EB11CC5010E94A20E7B
:101E30001C821B828FEF91E09A8389831E8284012A
:101E4000FE0131967F015A2C4B2C6FE270E0C801E5
:101E50000E94F52D0097E9F1F80120812F3219F445
:101E60000F5F1F4FF2CF801B8D3008F08CE0A82E43
:101E7000B12CA501B801CE01CB960E94002EEBE358
:101E8000F0E0EC0FFD1FEA0DFB1D1082C7010E9460
:101E90008C1721E0AE01455C5F4F652D742DC701A5
:101EA0000E94C018811109C0F601138212828FEFBF
:101EB00091E091838083158216C00A0D1B1D852D2C
:101EC000942D0E948C17C2015E2C4F2CE92EF82E07
:101ED000BCCF08191909F30111830083652D742DF6
:101EE000C6010E94A20EC601C95BDF4F0FB6F8946F
:101EF000DEBF0FBECDBFDF91CF911F910F91FF903D
:101F0000EF90DF90CF90BF90AF909F908F907F9099
:101F10006F905F904F9008959F92AF92BF92CF9233
:101F2000DF92EF92FF920F931F93CF93DF93CDB782
:101F3000DEB7C955D1090FB6F894DEBF0FBECDBFCD
:101F40007C016B015A01922E9E01285A3F4FCE010F
:101F5000CB960E94F30E6A960EAD1FAD6A970A0DDE
:101F60001B1DF801808181110AC0BE01655C7F4F95
:101F7000CE0101960E94A20E49EF51E041C019A284
:101F800018A28FEF91E09F8F8E8F1BA221968FADAD
:101F90002197811104C0C7010E94F20C37C0825002
:101FA000823060F4B601655D7F4F292DA801CE0116
:101FB0004E960E94C018811110C0EDCF292DA801A6
:101FC000BE01655C7F4FCE014E960E94C0188823EB
:101FD00011F3CE01CB960E948C17892D867041F0AB
:101FE00049A95AA96BA97CA9CE014E960E94A916AF
:101FF000BE01625E7F4FCE0101960E94A20EA80133
:10200000BE016F5F7F4FC7010E94B90CC701C75A5D
:10201000DF4F0FB6F894DEBF0FBECDBFDF91CF917B
:102020001F910F91FF90EF90DF90CF90BF90AF90F6
:102030009F900895FB01BC01655D7F4F20E030E07B
:1020400049E75DE0CF010C94DE0D10929E031092E3
:102050009F031092A2031092A40382E090E0A0E0FC
:10206000B0E08093A6039093A703A093A803B09336
:10207000A9031092BD031092C7031092C6038FEFFD
:1020800091E09093C5038093C4031092C90308950F
:102090009091EC039F3F39F48EBD00000DB407FE14
:1020A000FDCF8EB50895F894E091E803F091E9032F
:1020B0004091E403342F3095A091EA03B091EB03F3
:1020C0005091E503652F609598E0208123232083BC
:1020D0002C9187FF02C0252B01C026232C93208141
:1020E000242B2083880F915081F70000000000000E
:1020F0000000808183238083789408958091EC038D
:102100008F3F39F48EBD00000DB407FEFDCF8EB5B4
:102110000895F894E091EA03F091EB0380819091A7
:10212000E503892B8083E091E803F091E903309186
:10213000E403A091E603B091E7035091E303432F3A
:10214000409598E080E02081232B2083880F2C91FC
:10215000252309F0816020812423208300000000D2
:10216000915089F7789408952CB5982F93702C7F0F
:10217000922B9CBD9DB582FB882780F99E7F982B72
:102180009DBD089561E0FC0184810C94A92560E067
:10219000FC0184810C94A925CF93DF93EC018E81FF
:1021A000882389F08F8198859C012F5F3F4F388766
:1021B0002F838230924018F40E947E10F3CFCE011C
:1021C0000E94C2101E82DF91CF910895673028F0DF
:1021D00026E1FC01258380E00895633079F028F43E
:1021E0006130A1F0623041F005C0653059F040F037
:1021F000663051F084E00BC085E009C081E007C083
:1022000086E005C082E003C083E001C080E00E9458
:10221000B41081E008950F931F93CF93DF93EB01E8
:102220000E9498248B010E947E108F3F49F00E94EB
:102230009824601B710B6C177D07A8F380E001C028
:1022400081E0DF91CF911F910F910895CF92DF929E
:10225000FF920F931F93CF93DF9300D000D0CDB7A1
:10226000DEB76C01F62E29833A834B835C830E9490
:10227000CC10C6010E94C7106CE271E0C6010E943A
:102280000B118F2D80640E94481008E110E05C81E2
:102290004B813A812981DA01C901002E04C0B6952B
:1022A000A795979587950A94D2F729833A834B830C
:1022B0005C830E9448100850110929813A814B81A2
:1022C0005C81083F8FEF180731F7FF2029F0E8E025
:1022D000FE1621F08FEF03C085E901C087E80E9458
:1022E000481010E00E947E10F601828787FF04C02C
:1022F0001F3F11F01F5FF6CF0F900F900F900F90C0
:10230000DF91CF911F910F91FF90DF90CF900895B3
:10231000AF92BF92CF92DF92EF92FF920F931F93F3
:10232000CF93DF93EC01B62E1B8619861E821D8289
:102330001C864C832093EE030093ED03E092EC03A4
:102340000E9498248B0161E08C810E947025CE014F
:102350000E94C2108FEFE81609F45EC060E0809121
:10236000ED030E94702561E08091EE030E947025CC
:1023700061E08091EC030E9470258091EC03992725
:1023800087FD9095FC01EE5DFE4FE491F0E0EE0FCD
:10239000FF1FE05CFE4F259134913093E9032093B9
:1023A000E803FC01E25FFE4F84918093E403809197
:1023B000EE03992787FD9095FC01EE5DFE4FE491B9
:1023C000F0E0EE0FFF1FE05CFE4F2591349130935B
:1023D000EB032093EA03FC01E25FFE4F84918093BC
:1023E000E5038091ED03992787FD9095FC01EE5D53
:1023F000FE4FE491F0E0EE0FFF1FEA5CFE4F2591E7
:1024000034913093E7032093E603FC01E25FFE4F33
:1024100084918093E30305C00E94BB0583E00E9482
:10242000B4102AE0A22E8FEF0E944810AA94D9F788
:10243000CE010E94C71020E030E0A90160E0CE018B
:102440000E942611F82E8A8781E0F81649F00E9432
:102450009824601B710B613D774068F381E04BC0AD
:102460002AEA31E040E050E068E0CE010E94261107
:1024700082FF02C0FB860DC094E0F92E0E947E1000
:102480008A87FA94D9F78A3A11F082E034C082E060
:102490008B878B85823031F4C12CD12CE12C80E4E8
:1024A000F82E03C0C12CD12C760120E030E0A90128
:1024B00067E3CE010E942611A701960169E2CE01D1
:1024C0000E9426118A87882349F00E949824601B65
:1024D000710B613D774048F388E00DC08B858230F9
:1024E000E1F420E030E0A9016AE3CE010E94261168
:1024F000882331F086E08D83CE010E94C21024C073
:102500000E947E10807C803C11F483E08B870E94C7
:102510007E100E947E100E947E10CE010E94C2108A
:102520008091EC038F3F71F46B2DCE01DF91CF9141
:102530001F910F91FF90EF90DF90CF90BF90AF90E1
:102540000C94E610AA24A3948A2DDF91CF911F91B9
:102550000F91FF90EF90DF90CF90BF90AF900895D4
:102560000F931F93CF93DF93EC010E9498248B016C
:102570000E947E108A878F3F49F40E949824601B36
:10258000710B6D327140A0F38FE003C08E3F39F0C4
:102590008DE08D83CE010E94C21080E001C081E0F9
:1025A000DF91CF911F910F910895CF92DF92EF921B
:1025B000FF920F931F93CF93DF93EC0169010115F5
:1025C000110509F462C0C801820F931F8130924047
:1025D00008F05DC08E81882371F088819981AA817D
:1025E000BB81481759076A077B0729F48F819885B3
:1025F000C816D90610F5488359836A837B838B8577
:10260000833039F0E9E0440F551F661F771FEA95C4
:10261000D1F79A01AB0161E1CE010E942611882316
:1026200019F083E08D8333C0CE010E94B01288235D
:1026300071F118861F8281E08E838F8198858C15B9
:102640009D0540F40E947E108F81988501969887A1
:102650008F83F3CF6701E00EF11ECE14DF0431F05B
:102660000E947E10F60181936F01F7CF8F819885CC
:10267000800F911F98878F832985222319F0811558
:10268000924018F0CE010E94CC1081E004C0CE012F
:102690000E94C21080E0DF91CF911F910F91FF90B7
:1026A000EF90DF90CF900895EF92FF920F931F93DA
:1026B000790100E012E020E030E00E94D5121F9185
:1026C0000F91FF90EF900895AF92BF92CF92DF925B
:1026D000EF92FF920F931F93CF93DF9300D0CDB76C
:1026E000DEB78C01862FF8019485992351F1DA0128
:1026F000E12CF12CA12CB12CED91F0E0EB259F0108
:1027000064E0359527956A95E1F72E273F27BA2C87
:10271000AA24A226B326F901FE2FEE27F295F07F18
:10272000AE26BF2665E0220F331F6A95E1F7A22689
:10273000B326FFEFEF1AFF0AE11492E0F906E1F683
:1027400003C0AA24AA94BA2C49835A830E94481031
:102750004981E42E5A81F52EC12CD12CF7018191AB
:102760007F010E944810FFEFCF1ADF0AC11482E0F8
:10277000D806A1F78B2D0E9448108A2D0E94481080
:102780000E947E10F80182878F71853039F081E1D7
:102790008583C8010E94C21080E001C081E00F90D3
:1027A0000F90DF91CF911F910F91FF90EF90DF90ED
:1027B000CF90BF90AF9008950F931F93CF93DF9367
:1027C000EC018901411551056105710511F482E1A2
:1027D00032C08B85833039F0E9E0440F551F661F06
:1027E000771FEA95D1F79A01AB0168E1CE010E940B
:1027F0002611882311F084E01EC0A8016EEFCE01DF
:102800000E9464138823C1F068E572E0CE010E9443
:102810000B11811102C085E10EC020E030E0A9015A
:102820006DE0CE010E942611811104C00E947E102D
:10283000882339F084E18D83CE010E94C21080E0AC
:1028400004C0CE010E94C21081E0DF91CF911F91A0
:102850000F910895CF93DF93EC019C012A5F3F4FC6
:1028600041E050E060E070E08B8D9C8D0E94811D06
:102870008823A1F04F89588D698D7A8D452B462B81
:10288000472B71F44E815F81688579854F8B588F16
:10289000698F7A8F8C8180688C8302C080E001C050
:1028A00081E0DF91CF910895CF92DF92EF92FF9276
:1028B0001F93CF93DF93EC010E942A14811102C071
:1028C00080E04BC0EB8DFC8DCE80DF80E884F98406
:1028D00082E0C81AD108E108F108058404C0CC0CD4
:1028E000DD1CEE1CFF1C0A94D2F7468557856089D3
:1028F0007189C40ED51EE61EF71E148181E0C81A28
:10290000D108E108F108112361F0C701B601610F98
:10291000711D811D911D0E94CB1B882389F21150CE
:10292000F2CFEB8DFC8DC12C82E0D82EE12CF12C66
:10293000058404C0CC0CDD1CEE1CFF1C0A94D2F7ED
:102940004B895C896D897E894C0D5D1D6E1D7F1DD7
:102950004B8B5C8B6D8B7E8B81E0DF91CF911F91D8
:10296000FF90EF90DF90CF900895CF93DF93EC012D
:10297000462F6E857F85888999890E94901B8823C0
:1029800041F08A8920E2829FC001112488509C4F27
:1029900002C080E090E0DF91CF910895282FFB01E5
:1029A0008BE030E231938150E9F7A22FB92F20E07C
:1029B00037E09D91992319F19E3219F0EAEEF0E08B
:1029C00008C03A3011F128E03AE0F3CF31964917C8
:1029D000E1F044914111FACF3217B8F04FED490FB1
:1029E0004E3598F441E0420FFB01E20FF11D2FE953
:1029F000290F2A3108F490529083242FDACF81E0F6
:102A0000FB019081903209F480E008950F931F93A9
:102A1000CF93DF93EC018B018D81882311F080E04F
:102A200040C0FB0187898031B1F482E08D831F8A29
:102A3000188E198E1A8E408D518D60E070E095E0F1
:102A4000440F551F661F771F9A95D1F74B8B5C8BF0
:102A50006D8B7E8B15C0803211F783E08D83FB0177
:102A6000428D538D648D758D4F8B588F698F7A8F02
:102A70009E012D5E3F4FC8010E94751C882379F28C
:102A80001C8F0B8F81E08C831E821F821886198613
:102A90001A861B861C861D861E861F86188A198A22
:102AA0001A8ADF91CF911F910F9108952F923F9233
:102AB0004F925F926F927F928F929F92AF92BF924E
:102AC000CF92DF92EF92FF920F931F93CF93DF93FA
:102AD000EC016B015A018D81811103C08FEF9FEFD3
:102AE000DAC08C8180FFFACF4B895C896D897E8941
:102AF0008A859B85AC85BD852501612C712C8A0159
:102B00009B01081B190B2A0B3B0B04151505260509
:102B1000370518F45A01A81AB90A25011E0126E042
:102B2000220E311C4114510409F47BC04A855B8597
:102B30006C857D854A0181E09822ED818A019B01A7
:102B4000F9E03695279517950795FA95D1F78B8D6E
:102B50009C8DE23051F4FC01628D738D848D958DD6
:102B6000600F711F821F931F3EC0FC0174807A9416
:102B7000702281149104C9F4711017C0452B462BA3
:102B8000472B49F48F89988DA98DBA8D8E839F83A9
:102B9000A887B9870AC04E815F81688579859101D0
:102BA0000E94F11B882309F499CFEB8DFC8D6E8177
:102BB0007F81888599856250710981099109058411
:102BC00004C0660F771F881F991F0A94D2F70685E5
:102BD000178520893189600F711F821F931F670D30
:102BE000711D811D911D20E032E028193909320143
:102BF0002415350508F439012C8126FD04C0611423
:102C0000F2E07F06A1F500910601109107012091E5
:102C1000080130910901601771078207930719F4C1
:102C200026C0C50138C0760183019401AB01BC0107
:102C30008091F6039091F7030E94D512882309F43E
:102C40004DCFC60CD71C04C0E81BF90BCE0EDF1EFF
:102C50008A859B85AC85BD85860D971DA11DB11DFF
:102C60008A879B87AC87BD87461857085BCF40E0B3
:102C70000E94901B882309F431CFC40188509C4FD7
:102C8000D6019C01260D371DFC01E217F307E1F286
:102C900041914D93FACFDF91CF911F910F91FF900A
:102CA000EF90DF90CF90BF90AF909F908F907F90EC
:102CB0006F905F904F903F902F900895FF920F93E9
:102CC0001F93CF93DF931F92CDB7DEB78C01FC012A
:102CD0008581823018F480E090E034C0F8014285AC
:102CE000538564857585A5E07695679557954795D5
:102CF000AA95D1F7F42FFF70FF2E41E050E0BE01FE
:102D00006F5F7F4FC8010E945615019719F4298102
:102D100030E002C02FEF3FEF2F3F3F4FE1F2F801CD
:102D20004285538564857585415E5F4F6F4F7F4F48
:102D30004287538764877587F0E2FF9EC0011124A4
:102D400088509C4F0F90DF91CF911F910F91FF9072
:102D500008954F925F926F927F92AF92BF92CF92FF
:102D6000DF92EF92FF920F931F93CF93DF93EC01CB
:102D70006A017B012D81222309F457C08B899C892C
:102D8000AD89BE8984179507A607B70708F44DC01B
:102D90004EC08A859B85AC85BD85EB8DFC8DE58518
:102DA000F0E03996AC01BD0141505109610971094A
:102DB0000E2E04C076956795579547950A94D2F7DD
:102DC00097018601015011092109310904C0369586
:102DD000279517950795EA95D2F704171507260743
:102DE0003707B0F58F89988DA98DBA8D8E839F8313
:102DF000A887B987280139015E0186E0A80EB11CB9
:102E0000411451046104710461F14E815F81688550
:102E1000798595018B8D9C8D0E94F11B91E0491A5B
:102E20005108610871088111EBCF80E01FC022308A
:102E3000C1F0C114D104E104F10409F0AACF1E824B
:102E40001F82188619861A861B861C861D860DC051
:102E5000892B8A2B8B2B31F2041B150B260B370B7E
:102E6000C9CFCA86DB86EC86FD8681E0DF91CF91F3
:102E70001F910F91FF90EF90DF90CF90BF90AF9098
:102E80007F906F905F904F9008950F931F93CF9313
:102E9000DF93EC018D818823C9F18C8187FF30C0DD
:102EA00061E0CE010E94B5148C01009779F18D810B
:102EB000823048F44B895C896D897E89F801448FA2
:102EC000558F668F778F4F89588D698D7A8DF80170
:102ED000538F428F758B648BE091EF03F091F00379
:102EE000309759F0B8016A5E7F4FC801489609953E
:102EF000F801808D918D938B828B8C818F778C8361
:102F0000DF91CF911F910F910C94551B80E0DF91C1
:102F1000CF911F910F910895CF93DF93EC010E9401
:102F20004517882319F01D8281E001C080E0DF9100
:102F3000CF9108954F925F926F927F92AF92BF921E
:102F4000CF92DF92EF92FF920F931F93CF93DF9375
:102F500000D000D0CDB7DEB75C016A017B01FC0177
:102F600085818130F1F4848181FF1BC0F501838963
:102F70009489A589B68984179507A607B70788F0AD
:102F8000892B8A2B8B2B09F479C0F5014284538459
:102F900064847584B701A601C5010E94A916811138
:102FA00002C080E06CC0F501838D948DC114D10402
:102FB000E104F10471F44789508D618D728D0E9496
:102FC000961E882371F3F501178A108E118E128ECA
:102FD0003AC0F50146815781608571859E012F5F5A
:102FE0003F4F0E94F11B8823E1F249815A816B8196
:102FF0007C81F501838D948DFC012789203129F492
:1030000008EF1FEF20E030E004C008EF1FEF2FEFC4
:103010003FE04017510762077307A8F40E94961E0D
:10302000882309F4BECFF5014681578160857185FB
:103030000FEF1FEF2FEF3FE0838D948D0E94E01C78
:10304000882309F4AECFF501C38AD48AE58AF68ACB
:10305000848180688483C5010E944517882309F410
:10306000A0CFB701A6014C145D046E047F0410F4D8
:10307000B301A201C5010E94A91601C081E00F9011
:103080000F900F900F90DF91CF911F910F91FF90B4
:10309000EF90DF90CF90BF90AF907F906F905F9058
:1030A0004F900895FF920F931F93CF93DF93EC01FE
:1030B000F42E80E2689FF0011124E850FC4F8385D4
:1030C000817129F0842F827411F080E053C06A8BE3
:1030D0008091060190910701A0910801B09109012A
:1030E0008E879F87A88BB98B4489558960E070E0F3
:1030F000BA0155274427028D138D20E030E0402B84
:10310000512B622B732B4F8B588F698F7A8F83854E
:10311000887151F4048D158D268D378D0B8B1C8B8A
:103120002D8B3E8B81E00CC0803179F69E012D5EA7
:103130003F4F8B8D9C8D0E94751C882331F284E05B
:103140008D838F2D8F708C831E821F821886198627
:103150001A861B861C861D86F6FE0BC040E050E0DA
:10316000BA01CE01DF91CF911F910F91FF900C9486
:103170009A1781E0DF91CF911F910F91FF900895F1
:10318000AF92BF92CF92DF92EF92FF920F931F9375
:10319000CF93DF93CDB7DEB72B970FB6F894DEBF92
:1031A0000FBECDBF7C016B01CA01B22EF701258194
:1031B0002111B9C0BE016F5F7F4F0E94CE148823DA
:1031C00009F4B1C0F601838D948DF701948F838F3C
:1031D000F6011682178210861186128613861486CF
:1031E0001586A12CF60102851385248535858389F2
:1031F0009489A589B689081719072A073B07E8F5B6
:1032000045E036952795179507954A95D1F70F70A4
:10321000C6010E945E16009709F485C0FC0120815A
:10322000222311F0253EB9F4A1100EC0F701028B44
:1032300040910601509107016091080170910901C8
:1032400046875787608B718BFC018081AA24A394E9
:103250008111C8CF12C04BE050E0BC01CE010196F5
:103260000E94E82D892B09F0BDCF8B2D8073803310
:1032700009F459C04B2D602F52C08B2D82718231C1
:1032800009F051C0AA2041F061E0C7010E94B514C5
:103290008C01009779F447C0F6018581823009F4EA
:1032A00042C0C6010E9454148823E9F1F701128A32
:1032B00008EF13E080E2F80111928A95E9F78BE0BC
:1032C000FE013196D80101900D928A95E1F7E091C7
:1032D000EF03F091F003309739F0B801625F7F4F50
:1032E000C8014096099509C081E298E2F801918BE6
:1032F000808B80E098E097878687F80180899189A4
:10330000938B828B918F808F86859785978B868B09
:103310000E94551B882339F04B2DF7016289C701A4
:103320000E94521801C080E02B960FB6F894DEBFC1
:103330000FBECDBFDF91CF911F910F91FF90EF9006
:10334000DF90CF90BF90AF9008952F923F924F9211
:103350005F926F927F928F929F92AF92BF92CF9225
:10336000DF92EF92FF920F931F93CF93DF9300D0E2
:1033700000D01F92CDB7DEB78C017B013A01DC0192
:1033800015968C9115978130C9F414968C9181FF14
:1033900015C082FF1BC0F80143895489658976896D
:1033A00082859385A485B58584179507A607B707F9
:1033B00069F0C8010E94A916811108C081E090E05F
:1033C000F8019383828380E090E046C1630180C06E
:1033D000D8015B968D919C915C97FC01F481F15032
:1033E000B501A40129E076956795579547952A95EB
:1033F000D1F7F423FD8321E09222FF2309F474C066
:1034000080E092E08819990956018C159D0508F411
:103410005C01D8015B96ED91FC915C9716962D901E
:103420003D904D905C901997B2E02B1A31084108FD
:103430005108058404C0220C331C441C551C0A94FA
:10344000D2F786859785A089B189280E391E4A1E34
:103450005B1EED812E0E311C411C511CA114F2E0AB
:10346000BF0609F088C08091060190910701A091E4
:103470000801B091090182159305A405B50559F419
:103480008FEF9FEFDC018093060190930701A093DB
:103490000801B09309019701B201A1018091F603DF
:1034A0009091F7030E94DC13882309F487CF9EEFE5
:1034B000F91ACA18DB08F80182859385A485B585B9
:1034C0008A0D9B1DA11DB11D82879387A487B58797
:1034D000D8011A968D909D90AD90BC901D97C11407
:1034E000D10409F075CF8AC08114910409F088CF06
:1034F00016964D915D916D917C91199741155105ED
:103500006105710559F457968D919D910D90BC916F
:10351000A02D0097A105B10541F521C09E012F5FA7
:103520003F4F0E94F11B882309F44ECF89819A8175
:10353000AB81BC81F801238D348DF90127892031BD
:1035400029F448EF5FEF60E070E004C048EF5FEF00
:103550006FEF7FE084179507A607B70730F0C80123
:103560000E942A1481114CCF29CFF80186839783BA
:10357000A087B18745CF8114910429F5D8011A9607
:103580004D915D916D917C911D9753968D919D917B
:103590000D90BC91A02D481759076A077B0798F03A
:1035A0000E94551B882309F409CF2092060130920E
:1035B000070140920801509209018091F503816052
:1035C0008093F50308C041E0C201B1010E94901B45
:1035D000882309F4F3CEC40188509C4FD7019C0185
:1035E0002A0D3B1DFC01E217F30719F04D914193A1
:1035F000FACFE81BF90BEE0EFF1E5BCF53968D91B1
:103600009D910D90BC91A02DF801248188159905FC
:10361000AA05BB0538F4838A948AA58AB68A2068ED
:1036200024830CC08091EF039091F003892B31F03B
:103630006114710419F02068F8012483D8011496EC
:103640008C9183FD02C0C30107C0C8010E944517C9
:10365000882309F4B3CEF7CF0F900F900F900F90FF
:103660000F90DF91CF911F910F91FF90EF90DF901E
:10367000CF90BF90AF909F908F907F906F905F9012
:103680004F903F902F900895CF93DF931F92CDB727
:10369000DEB7698341E050E0BE016F5F7F4F0E945B
:1036A000A5190F90DF91CF9108958091F50388239C
:1036B00099F14091060150910701609108017091C4
:1036C000090128EF33E08091F6039091F7030E94FF
:1036D000DC13882319F14091F1035091F2036091BA
:1036E000F3037091F403411551056105710591F0E3
:1036F00028EF33E08091F6039091F7030E94DC13EA
:10370000882361F01092F1031092F2031092F303F8
:103710001092F4031092F50381E0089580E008957B
:10372000CF92DF92EF92FF92CF936B017C01C42F77
:103730008091060190910701A0910801B0910901C3
:103740008C159D05AE05BF05D1F00E94551B81115A
:1037500002C080E01AC028EF33E0B701A6018091D3
:10376000F6039091F7030E945413882391F3C092BB
:103770000601D0920701E0920801F09209018091C0
:10378000F5038C2B8093F50381E0CF91FF90EF90B0
:10379000DF90CF900895CF92DF92EF92FF926B016E
:1037A0007C010E94551B8823B1F0E8EFF3E01192F1
:1037B00085E0E83FF807D9F7C0920601D0920701EB
:1037C000E0920801F09209018091F50381608093F5
:1037D000F50381E001C080E0FF90EF90DF90CF9093
:1037E00008958F929F92AF92BF92CF92DF92EF9205
:1037F000FF920F931F93CF93DF938C016A017B019C
:10380000E901FC0181859285A385B4850196A11DFE
:10381000B11D84179507A607B70710F480E058C0BC
:10382000F80143895489658976898789803129F42B
:10383000BB27AF2D9E2D8D2D09C0D701C60127E0D6
:10384000B695A795979587952A95D1F74C015D0177
:10385000840E951EA61EB71EC501B40180900601F8
:1038600090900701A0900801B090090168157905B2
:103870008A059B0589F4F8018789803199F4DD2454
:10388000EE24FF24F601EE0FFF1FE850FC4F80816D
:103890009181A0E0B0E017C040E00E94901B811130
:1038A000EACFBCCFE894C7F8DD24EE24FF24F6016C
:1038B000EE0FFF1FEE0FFF1FE850FC4F808191813C
:1038C000A281B381BF7088839983AA83BB8381E07F
:1038D000DF91CF911F910F91FF90EF90DF90CF90EC
:1038E000BF90AF909F908F9008954F925F926F928C
:1038F0007F92AF92BF92CF92DF92EF92FF920F939F
:103900001F93CF93DF9300D000D0CDB7DEB78C01EB
:1039100049835A836B837C835901C12CD12C760156
:10392000412C42E0542E612C712C49815A816B81CB
:103930007C819E012F5F3F4FC8010E94F11B8823AD
:1039400059F1D301C201F801058404C0880F991F01
:10395000AA1FBB1F0A94D2F7C80ED91EEA1EFB1E6F
:1039600049815A816B817C818789803129F488EF74
:103970009FEFA0E0B0E004C088EF9FEFAFEFBFE0A3
:10398000481759076A077B0780F2F501C082D18288
:10399000E282F38281E001C080E00F900F900F90EF
:1039A0000F90DF91CF911F910F91FF90EF90DF90DB
:1039B000CF90BF90AF907F906F905F904F900895A1
:1039C0004F925F926F927F928F929F92AF92BF922F
:1039D000CF92DF92EF92FF920F931F93CF93DF93DB
:1039E000EC016A017B012801390142305105610572
:1039F000710508F474C049855A856B857C854F5FD5
:103A00005F4F6F4F7F4F4C155D056E057F0508F4C6
:103A100066C08B889C88AD88BE888F89803129F4E8
:103A200077276F2D5E2D4D2D09C0B701A601E7E068
:103A30007695679557954795EA95D1F7840E951E2B
:103A4000A61EB71E40910601509107016091080122
:103A50007091090184169506A606B70671F48F8940
:103A6000803199F4DD24EE24FF24F601EE0FFF1FD0
:103A7000E850FC4F5182408218C040E0C501B401BB
:103A80000E94901B8111EBCF2AC0E894C7F8DD2477
:103A9000EE24FF24F601EE0FFF1FEE0FFF1FE8508C
:103AA000FC4F40825182628273828091F503816073
:103AB0008093F5038A89823080F08D819E81AF8169
:103AC000B885880D991DAA1DBB1D8093F1039093A5
:103AD000F203A093F303B093F40381E001C080E00C
:103AE000DF91CF911F910F91FF90EF90DF90CF90DA
:103AF000BF90AF909F908F907F906F905F904F900E
:103B000008952F923F924F925F926F927F929F9271
:103B1000AF92BF92CF92DF92EF92FF920F931F93DB
:103B2000CF93DF93CDB7DEB760970FB6F894DEBFC3
:103B30000FBECDBF5C014D875E876F87788B190103
:103B4000D9014D905D906D907C90411451046104B9
:103B5000710431F0BFEF4B1A5B0A6B0A7B0A10C08D
:103B6000FC014080518062807380992493940D857C
:103B70001E852F853889013011052105310509F091
:103B8000912CD50119962D913D914D915C911C97E9
:103B90002F5F3F4F4F4F5F4F29873A874B875C8797
:103BA000730162011D821E821F821886F5018185C4
:103BB0009285A385B4850D811E812F8138850817D4
:103BC00019072A073B0708F056C029853A854B8517
:103BD0005C852C153D054E055F0550F4A2E0CA2E0C
:103BE000D12CE12CF12CB2E04B2E512C612C712CFC
:103BF0009E012F5F3F4FB701A601C5010E94F11B37
:103C00008823C9F149815A816B817C81D701C60122
:103C10000196A11DB11D452B462B472B19F02C01F8
:103C20003D010FC0AC01BD01441955096609770972
:103C30000D851E852F853889401751076207730748
:103C400079F02D813E814F8158852F5F3F4F4F4F37
:103C50005F4F2D833E834F8358876C017D01A6CF34
:103C60000FEF1FEF2FEF3FE0B701A601C5010E9444
:103C7000E01C811118C080E041C0D701C601019746
:103C8000A109B1098D839E83AF83B887970186010F
:103C9000AC01BD01C5010E94E01C882361F3CD8009
:103CA000DE80EF80F8844C145D046E047F0428F3FA
:103CB000D1014D915D916D917C9141155105610549
:103CC000710599F4F10140825182628273829920D8
:103CD000A1F0FFEF4F1A5F0A6F0A7F0AD5014D92DC
:103CE0005D926D927C92139708C093018201C50189
:103CF0000E94E01C8111E6CFBECF81E060960FB636
:103D0000F894DEBF0FBECDBFDF91CF911F910F9111
:103D1000FF90EF90DF90CF90BF90AF909F907F90FB
:103D20006F905F904F903F902F900895AF92BF9209
:103D3000CF92DF92EF92FF920F931F93CF93DF9377
:103D400000D000D0CDB7DEB75C016A017B0182E014
:103D500090E0A0E0B0E0F50180839183A283B3837B
:103D60009E012F5F3F4FB701A601C5010E94F11BC5
:103D7000882311F100E010E09801B701A601C50108
:103D80000E94E01C8823C1F0C980DA80EB80FC80AF
:103D9000F5018789803129F488EF9FEFA0E0B0E03A
:103DA00004C088EF9FEFAFEFBFE0C816D906EA0660
:103DB000FB06B0F281E001C080E00F900F900F9001
:103DC0000F90DF91CF911F910F91FF90EF90DF90B7
:103DD000CF90BF90AF9008958F929F92AF92BF9275
:103DE000CF92DF92EF92FF920F931F93CF93DF93C7
:103DF000EC01142F7093F7036093F603442341F111
:103E0000453010F080E0EFC040E060E070E0CB01B2
:103E10000E94901B8823B1F320E1129FF00111242E
:103E2000EA55FA4F80818F7769F784859585A68555
:103E3000B78584369105A105B10520F3C084D184EE
:103E4000E284F384C114D104E104F10421F4DACF53
:103E5000C12CD12C760140E0C701B6010E94901B15
:103E6000882381F28091030490910404811592408B
:103E700049F630910804332329F280910604909189
:103E80000704892B09F4BECF20910504222309F4ED
:103E9000B9CF3A8B2C831D8630E041E050E06D8530
:103EA000062FCA01062E02C0880F991F0A94E2F756
:103EB0002817390731F081E0860F8D87683078F355
:103EC000A1CF20910E0430910F042115310519F076
:103ED00040E050E008C020911C0430911D04409146
:103EE0001E0450911F042D833E834F835887809179
:103EF00006049091070446015701880E991EA11CE3
:103F0000B11C8B8A9C8AAD8ABE8AE0910904F0912B
:103F10000A04F98FE88FA0910804B0E00E94A72C52
:103F2000680D791D8A1D9B1D6A8F7B8F8C8F9D8FDD
:103F300015E0EE0FFF1F1A95E1F7E150FE4FEF2F4E
:103F4000FF27E695DC01CB018E0F9F1FA11DB11D40
:103F50008E879F87A88BB98B80900B0490900C0460
:103F60008114910419F0A12CB12C08C08090180480
:103F700090901904A0901A04B0901B04A701960118
:103F8000281B390B4A0B5B0BDA01C901880D991DFF
:103F9000AA1DBB1D04C0B695A795979587950A9550
:103FA000D2F789879A87AB87BC87853F3FE0930725
:103FB000A105B10510F48CE014C0853F9F4FA10509
:103FC000B10510F480E10DC0809124049091250486
:103FD000A0912604B09127048A8F9B8FAC8FBD8F50
:103FE00080E28F8B81E0DF91CF911F910F91FF9045
:103FF000EF90DF90CF90BF90AF909F908F900895FB
:104000000E94BB0588EF95E00C94E208CF93DF9304
:10401000EC0188EF95E00E940C0C8823E1F088EF1A
:1040200095E00E942B0C8823B1F040E0242F332729
:1040300027FD30958091F80590E02817390794F412
:10404000FE01E20FF31FD901A850BA4F11968C91CF
:1040500080834F5FEBCF62E370E080E090E00E94EE
:10406000C724D7CFDF91CF91089549E06AE088EF68
:1040700095E00C94A80782E00E94DF2521E0892BBF
:1040800009F420E0822F0895CF930E943B208823DB
:1040900011F085E630C042E050E06AE570E085ED61
:1040A00092E00E949E0385ED92E00E948502C82F57
:1040B00085ED92E00E948502382F22272C2BE6E026
:1040C000F6E080E090E061E070E0AB01082E02C015
:1040D000440F551F0A94E2F742235323452B21F046
:1040E0004081411102C007C01082019631968C3088
:1040F000910559F7CECFCF9108951F93CF93DF93BA
:104100001F92CDB7DEB7162FBC0185ED92E0498333
:104110000E942803612F85ED92E00E94D50249811B
:10412000642F85ED92E00E94D50285ED92E00F901C
:10413000DF91CF911F910C94A10340E06EE58AE5D9
:1041400090E00E947D2041E06BE28AE590E00E94D1
:104150007D2041E06CE28AE590E00E947D2040E015
:104160006DE28AE590E00E947D2040E06EE28AE503
:1041700090E00E947D2041E06FE28AE590E00E949D
:104180007D2041E060E38AE590E00E947D204FEFD2
:1041900061E38AE590E00E947D2042E062E38AE5E7
:1041A00090E00E947D2046E061E48AE590E00E9474
:1041B0007D204AE062E48AE590E00E947D2046E0AE
:1041C00063E48AE590E00E947D204AE064E48AE5A9
:1041D00090E00E947D2046E065E48AE590E00E9440
:1041E0007D204AE066E48AE590E00E947D2046E07A
:1041F00067E48AE590E00E947D204AE068E48AE571
:1042000090E00E947D2046E069E48AE590E00E940B
:104210007D204AE06AE48AE590E00E947D2046E045
:104220006BE48AE590E00E947D204AE06CE48AE538
:1042300090E00E947D2046E06DE48AE590E00E94D7
:104240007D204AE06EE48AE590E00E947D2046E011
:104250006FE48AE590E00E947D204AE060E58AE50F
:1042600090E00E947D2046E061E58AE590E00E94B2
:104270007D204AE062E58AE590E00E947D2046E0EC
:1042800063E58AE590E00E947D204AE064E58AE5E6
:1042900090E00E947D2046E065E58AE590E00E947E
:1042A0007D204AE066E58AE590E00E947D2046E0B8
:1042B00067E58AE590E00E947D204AE068E58AE5AE
:1042C00090E00E947D2044E06DE58AE590E00E9448
:1042D0007D204CE06EE58AE590E00E947D204CE078
:1042E0006EE58AE590E00C947D2060E082E00E941B
:1042F000702561E082E00E94A92585ED92E00E9490
:1043000014030E949D2081E008950F9361E083E0F3
:104310000E94702507E026E045E063E089E993E02C
:104320000E946E0E882311F081E001C08FEF0F9183
:1043300008956F927F928F929F92AF92BF92CF9289
:10434000DF92EF92FF920F931F93CF93DF93CDB73E
:10435000DEB76B970FB6F894DEBF0FBECDBF8C01F2
:10436000FC01C2A4D3A4E4A4F5A4253029F4C40E0E
:10437000D51EE61EF71E04C0C41AD50AE60AF70ABF
:10438000F7FE02C080E08BC0FFEFCF16DF06EF061E
:10439000FFE7FF06B9F322E5A8014E5D5F4F69E92B
:1043A00073E0CE0101960E948C0F8B819C81F801F5
:1043B000938382838D819E81AF81B8858483958329
:1043C000A683B78389859A85AB85BC8580879187CD
:1043D000A287B3878DE0FE013D96D8011C9601901F
:1043E0000D928A95E1F78A8D9B8DF801928F818FCE
:1043F000CE0101960E94050DC8010E946C0D882314
:1044000009F2F801C2A6D3A6E4A6F5A688E0782EA4
:10441000C701B6010E942B2A6B017C01672D77270B
:1044200067FD7095872F972F0E942B2A9B01AC0167
:1044300060E070E080E291E40E941A2B4B015C0185
:104440009B01AC01C701B6010E9490290E94F82986
:10445000662E772767FD70954AE050E0C8010E94FC
:10446000F828662D772767FD7095872F972F0E9474
:104470002B2AA50194010E94B72A9B01AC01C70118
:10448000B6010E942B290E94F8296B017C017A94C5
:10449000FFEF7F12BDCFC8010E945A0D81E06B96DD
:1044A0000FB6F894DEBF0FBECDBFDF91CF911F9145
:1044B0000F91FF90EF90DF90CF90BF90AF909F90C3
:1044C0008F907F906F9008959F92AF92BF92CF92FE
:1044D000DF92EF92FF920F931F93CF93DF93CDB7AD
:1044E000DEB76F970FB6F894DEBF0FBECDBF8C015D
:1044F000AC014E5D5F4F21E069E973E0CE010196AA
:104500000E948C0F8B819C81F801938382838D8123
:104510009E81AF81B88584839583A683B78389857F
:104520009A85AB85BC8580879187A287B3878DE00C
:10453000FE013D96D8011C9601900D928A95E1F7F7
:104540008A8D9B8DF801928F818FCE0101960E94FA
:10455000050DC8010E946C0D882309F479C0C12C97
:10456000D12C7601C8010E942B0D892B09F458C06B
:1045700098E0A92EB12C63E072E08BE196E00E94F6
:1045800040284AE050E0B5018BE196E00E94002906
:10459000C8010E94840C982E6A2D772767FD7095BC
:1045A000872F972F0E942B2A9B01AC0160E070E0BF
:1045B00080E291E40E941A2B9B01AC01C701B60175
:1045C0002C8F3D8F4E8F5F8F0E942B2A6B017C01B9
:1045D000692D772767FD709560537109882777FDEE
:1045E0008095982F0E942B2A2C8D3D8D4E8D5F8DAE
:1045F0000E94B72A9B01AC01C701B6010E942C2979
:104600000E94F8296B017C01F1E0AF1AB10808F0B3
:10461000B2CF6BE072E08BE196E00E944D28A2CF12
:1046200062E272E08BE196E00E9440282AE030E0EE
:10463000B701A6018BE196E00E941829F801C2A6F5
:10464000D3A6E4A6F5A6C8010E945A0D88E001C0D1
:1046500087E06F960FB6F894DEBF0FBECDBFDF9137
:10466000CF911F910F91FF90EF90DF90CF90BF906F
:10467000AF909F900895CF92DF92EF92FF920F93A9
:104680001F93CF93DF93CDB7DEB76B970FB6F89438
:10469000DEBF0FBECDBF7C018B016BE272E08BE110
:1046A00096E00E944D28F70180E090E02191D8012A
:1046B000A80FB91F5B962C93019685309105B1F731
:1046C00021E040E452E069E973E0CE0101960E94E6
:1046D0008C0F8B819C81F801938382838D819E81D5
:1046E000AF81B88584839583A683B78389859A85AE
:1046F000AB85BC8580879187A287B3878DE0FE015B
:104700003D96D8011C9601900D928A95E1F78A8D0D
:104710009B8DF801928F818FCE0101960E94050D2D
:10472000C8010E946C0D882309F4A8C0E12CF12C6B
:10473000C12CD12CE4E0EE16F10484F4C8010E94EF
:10474000840CF801EE0DFF1D938D981303C0FFEF4D
:10475000CF1ADF0A8FEFE81AF80AECCFF4E0CF1691
:10476000D10409F047C0E12CF12CC8010E94840C4F
:10477000F801EE0DFF1D878F8FEFE81AF80AE3E0CE
:10478000EE16F10491F7C8010E945A0D6AE472E036
:104790008BE196E00E944D28F801878D82A380A1CD
:1047A00083A381A184A32EE2D22ED5A234E7F32ED7
:1047B000F6A248E7E42EE7A2F0A611A66AE572E0A9
:1047C0008BE196E00E944D28F801878D898380A1B6
:1047D0008A8381A18B83DC82FD82EE82FF82188630
:1047E000BE016F5F7F4F89E993E00E941A1081112B
:1047F0002FC013C0C8010E94840CC8010E94840C01
:10480000C8010E94840CC8010E942B0D892B09F05D
:104810008DCFC8010E945A0D31C063E672E08BE172
:1048200096E00E944D28F80112A613A614A615A61C
:1048300025E040E050E0BA01C8010E949921882398
:10484000E9F064E772E08BE196E00E944D2814C025
:1048500061E872E08BE196E00E944D28C8010E9459
:104860006422482F552747FD5095652F752FF80175
:1048700042A753A764A775A781E001C080E06B96AB
:104880000FB6F894DEBF0FBECDBFDF91CF911F9161
:104890000F91FF90EF90DF90CF9008951F920F92AD
:1048A0000FB60F9211242F933F938F939F93AF9343
:1048B000BF938091130690911406A0911506B091B4
:1048C00016063091120623E0230F2D3720F40196AF
:1048D000A11DB11D05C026E8230F0296A11DB11D23
:1048E000209312068093130690931406A093150646
:1048F000B09316068091170690911806A09119069C
:10490000B0911A060196A11DB11D809317069093D0
:104910001806A0931906B0931A06BF91AF919F9104
:104920008F913F912F910F900FBE0F901F90189570
:104930002FB7F894609113067091140680911506B4
:10494000909116062FBF08953FB7F89480911706EF
:1049500090911806A0911906B0911A0626B5A89B49
:1049600005C02F3F19F00196A11DB11D3FBF66275D
:10497000782F892F9A2F620F711D811D911D42E0A2
:10498000660F771F881F991F4A95D1F708958F9258
:104990009F92AF92BF92CF92DF92EF92FF926B0104
:1049A0007C010E94A4244B015C01C114D104E104E8
:1049B000F104F1F00E942A290E94A42468197909BF
:1049C0008A099B09683E73408105910570F321E0D7
:1049D000C21AD108E108F10888EE880E83E0981E1B
:1049E000A11CB11CC114D104E104F10429F7DDCFED
:1049F000FF90EF90DF90CF90BF90AF909F908F90FF
:104A000008958230910538F0880F991F880F991FFB
:104A100005970197F1F70895789484B5826084BD75
:104A200084B5816084BD85B5826085BD85B58160B2
:104A300085BDEEE6F0E0808181608083E1E8F0E012
:104A40001082808182608083808181608083E0E841
:104A5000F0E0808181608083E1EBF0E08081846020
:104A60008083E0EBF0E0808181608083EAE7F0E022
:104A70008081846080838081826080838081816086
:104A800080838081806880831092C1000895833084
:104A900081F028F4813099F08230A1F008958730B8
:104AA000A9F08830B9F08430D1F4809180008F7DF6
:104AB00003C0809180008F7780938000089584B533
:104AC0008F7702C084B58F7D84BD08958091B0003A
:104AD0008F7703C08091B0008F7D8093B0000895E0
:104AE000CF93DF9390E0FC01E25FFE4F2491FC0145
:104AF000EE5DFE4F8491882349F190E0880F991F65
:104B0000FC01E65BFE4FA591B491805C9E4FFC01D9
:104B1000C591D4919FB7611108C0F8948C912095EC
:104B200082238C93888182230AC0623051F4F894E6
:104B30008C91322F309583238C938881822B8883AC
:104B400004C0F8948C91822B8C939FBFDF91CF91FE
:104B500008950F931F93CF93DF931F92CDB7DEB7C6
:104B6000282F30E0F901E650FF4F8491F901E25F10
:104B7000FE4F1491F901EE5DFE4F04910023C9F040
:104B8000882321F069830E9447256981E02FF0E0A6
:104B9000EE0FFF1FE05CFE4FA591B4919FB7F89414
:104BA0008C91611103C01095812301C0812B8C93DE
:104BB0009FBF0F90DF91CF911F910F910895CF93D9
:104BC000DF93282F30E0F901E650FF4F8491F9017F
:104BD000E25FFE4FD491F901EE5DFE4FC491CC230C
:104BE00091F081110E944725EC2FF0E0EE0FFF1F9E
:104BF000EA5CFE4FA591B4912C912D2381E090E0C9
:104C000021F480E002C080E090E0DF91CF91089530
:104C1000FC01818D228D90E0805C9F4F821B910969
:104C20008F7399270895FC01918D828D981731F02B
:104C3000828DE80FF11D858D90E008958FEF9FEF35
:104C40000895FC01918D828D981761F0828DDF01AE
:104C5000A80FB11D5D968C91928D9F5F9F73928F6F
:104C600090E008958FEF9FEF089585EA97E2892BF2
:104C700049F080E090E0892B29F00E94A52781115E
:104C80000C9400000895FC01848DDF01A80FB11D74
:104C9000A35ABF4F2C91848D90E001968F73992772
:104CA000848FA689B7892C93A089B1898C9180645F
:104CB0008C93938D848D981306C00288F389E02D20
:104CC00080818F7D80830895CF93DF93EC01888D61
:104CD0008823C9F0EA89FB89808185FD05C0A88900
:104CE000B9898C9186FD0FC00FB607FCF5CF808186
:104CF00085FFF2CFA889B9898C9185FFEDCFCE01D0
:104D00000E944326E7CFDF91CF910895CF92DF92A3
:104D1000FF920F931F93CF93DF931F92CDB7DEB710
:104D20006C0181E0D60158968C9358975B969C91C4
:104D30005B975C968C915C97981307C05096ED91A9
:104D4000FC915197808185FD2EC0F601038D10E006
:104D50000F5F1F4F0F731127F02EF601848DF8128D
:104D600011C00FB607FCF9CFD6015096ED91FC911A
:104D70005197808185FFF1CFC60169830E94432648
:104D80006981EBCF838DE80FF11DE35AFF4F6083FC
:104D9000D6015B960C935B975296ED91FC915397DD
:104DA000808180620CC0D6015696ED91FC91579798
:104DB00060835096ED91FC9151978081806480834F
:104DC00081E090E00F90DF91CF911F910F91FF90C4
:104DD000DF90CF900895BF92CF92DF92EF92FF9233
:104DE000CF93DF93EC016A017B01B22EE889F98948
:104DF00082E08083411581EE580761057105A1F0BD
:104E000060E079E08DE390E0A70196010E947F2C9D
:104E100021503109410951095695479537952795F4
:104E2000211580E1380798F0E889F989108260E857
:104E300074E88EE190E0A70196010E947F2C21503A
:104E40003109410951095695479537952795EC85C4
:104E5000FD853083EE85FF852083188EEC89FD89E2
:104E6000B082EA89FB89808180618083EA89FB893D
:104E7000808188608083EA89FB8980818068808363
:104E8000EA89FB8980818F7D8083DF91CF91FF90BC
:104E9000EF90DF90CF90BF9008951F920F920FB6C2
:104EA0000F9211242F938F939F93EF93FF93E09191
:104EB0002B06F0912C068081E0913106F0913206AC
:104EC00082FD12C09081809134068F5F8F73209194
:104ED0003506821751F0E0913406F0E0E55EF94FB7
:104EE000958F8093340601C08081FF91EF919F914F
:104EF0008F912F910F900FBE0F901F9018951F92BA
:104F00000F920FB60F9211242F933F934F935F93FD
:104F10006F937F938F939F93AF93BF93EF93FF9381
:104F20008BE196E00E944326FF91EF91BF91AF91F4
:104F30009F918F917F916F915F914F913F912F91B1
:104F40000F900FBE0F901F9018958BE196E00E9476
:104F5000082621E0892B09F420E0822F0895109281
:104F60001E0610921D0688EE93E0A0E0B0E080934C
:104F70001F0690932006A0932106B093220682E993
:104F800092E090931C0680931B0685EC90E0909332
:104F900028068093270684EC90E090932A0680935D
:104FA000290680EC90E090932C0680932B0681ECF0
:104FB00090E090932E0680932D0682EC90E09093E3
:104FC000300680932F0686EC90E090933206809313
:104FD0003106109234061092350610923606109261
:104FE0003706089508950E940C250E94F2270E941A
:104FF0008001C5E3D6E20E94FF012097E1F30E9401
:105000003526F9CFCF92DF92EF92FF920F931F9345
:10501000CF93DF937C016A01EB0100E010E00C15F7
:105020001D0571F06991D701ED91FC910190F0811E
:10503000E02DC7010995892B19F00F5F1F4FEFCFA6
:10504000C801DF91CF911F910F91FF90EF90DF90FA
:10505000CF9008956115710581F0DB010D9000205E
:10506000E9F7AD0141505109461B570BDC01ED91A9
:10507000FC910280F381E02D099480E090E0089596
:105080000C942A28DC01ED91FC910190F081E02D37
:1050900009946EE972E00C942A280F931F93CF9322
:1050A000DF93EC010E942A288C01CE010E9449283E
:1050B000800F911FDF91CF911F910F9108958F92D3
:1050C0009F92AF92BF92DF92EF92FF920F931F9346
:1050D000CF93DF93CDB7DEB7A1970FB6F894DEBFBD
:1050E0000FBECDBF7C01F42FD52ECB0119A22230EB
:1050F00008F42AE08E010F5D1F4F822E912CA12C07
:10510000B12C6F2F7D2DA50194010E947F2CF22FD1
:10511000D32ECA01015011096A3014F4E0E301C032
:10512000E7E3E60FD801EC93232B242B252B49F73B
:10513000B801C7010E942A28A1960FB6F894DEBFD5
:105140000FBECDBFDF91CF911F910F91FF90EF90D8
:10515000DF90BF90AF909F908F900895CF92DF9295
:10516000EF92FF920F931F93CF93DF93EC016A01AD
:105170007B012115310579F4E881F9810190F081F5
:10518000E02D642FDF91CF911F910F91FF90EF9051
:10519000DF90CF9009942A303105E9F477FF1AC0E7
:1051A0006DE20E9442288C0144275527BA014C1910
:1051B0005D096E097F092AE0CE010E945F28800FF9
:1051C000911FDF91CF911F910F91FF90EF90DF9092
:1051D000CF9008952AE0B701A601CE01DF91CF91CB
:1051E0001F910F91FF90EF90DF90CF900C945F286C
:1051F0009A01AB01662757FD6095762F0C94AE2877
:105200000F931F93CF93DF93EC019A01AB016627B5
:1052100057FD6095762F0E94AE288C01CE010E942A
:105220004928800F911FDF91CF911F910F91089511
:105230000F931F93CF93DF93EC010E94AE288C0154
:10524000CE010E944928800F911FDF91CF911F91BD
:105250000F91089508955058BB27AA270ED04DC12D
:105260003ED130F043D120F031F49F3F11F41EF4D1
:1052700033C10EF4E095E7FB29C1E92F4FD180F34C
:10528000BA17620773078407950718F071F49EF543
:1052900067C10EF4E0950B2EBA2FA02D0B01B901BA
:1052A00090010C01CA01A0011124FF27591B99F09C
:1052B000593F50F4503E68F11A16F040A22F232FA8
:1052C000342F4427585FF3CF469537952795A795F8
:1052D000F0405395C9F77EF41F16BA0B620B730B9F
:1052E000840BBAF09150A1F0FF0FBB1F661F771F10
:1052F000881FC2F70EC0BA0F621F731F841F48F4C5
:10530000879577956795B795F7959E3F08F0B3CF4A
:105310009395880F08F09927EE0F97958795089534
:105320000CD0EBC0E3D040F0DAD030F021F45F3F96
:1053300019F0CCC0511115C1CFC0F0D098F399230A
:10534000C9F35523B1F3951B550BBB27AA27621749
:105350007307840738F09F5F5F4F220F331F441F8E
:10536000AA1FA9F333D00E2E3AF0E0E830D09150C6
:105370005040E695001CCAF729D0FE2F27D0660FB3
:10538000771F881FBB1F261737074807AB07B0E8F2
:1053900009F0BB0B802DBF01FF2793585F4F2AF008
:1053A0009E3F510568F092C0DCC05F3FECF3983E31
:1053B000DCF3869577956795B795F7959F5FC9F765
:1053C000880F911D9695879597F90895E1E0660FEE
:1053D000771F881FBB1F621773078407BA0720F067
:1053E000621B730B840BBA0BEE1F88F7E0950895D0
:1053F00004D06894B111B5C0089598D088F09F5733
:1054000090F0B92F9927B751A0F0D1F0660F771F10
:10541000881F991F1AF0BA95C9F712C0B13081F0F0
:105420009FD0B1E008959CC0672F782F8827B85F80
:1054300039F0B93FCCF3869577956795B395D9F751
:105440003EF490958095709561957F4F8F4F9F4F5B
:105450000895E89409C097FB3EF490958095709567
:1054600061957F4F8F4F9F4F9923A9F0F92F96E9B0
:10547000BB279395F695879577956795B795F11125
:10548000F8CFFAF4BB0F11F460FF1BC06F5F7F4FC2
:105490008F4F9F4F16C0882311F096E911C07723D4
:1054A00021F09EE8872F762F05C0662371F096E8DD
:1054B000862F70E060E02AF09A95660F771F881FAC
:1054C000DAF7880F9695879597F9089597F99F676A
:1054D00080E870E060E008959FEF80EC089500247C
:1054E0000A941616170618060906089500240A9449
:1054F00012161306140605060895092E0394000CCF
:1055000011F4882352F0BB0F40F4BF2B11F460FF5D
:1055100004C06F5F7F4F8F4F9F4F089557FD905886
:10552000440F551F59F05F3F71F04795880F97FB67
:10553000991F61F09F3F79F0879508951216130621
:105540001406551FF2CF4695F1DF08C01616170650
:105550001806991FF1CF8695710561050894089585
:10556000E894BB2766277727CB0197F908950BD0DE
:10557000C4CFB5DF28F0BADF18F0952309F0A6CF25
:10558000ABCF1124EECFCADFA0F3959FD1F3950FD7
:1055900050E0551F629FF001729FBB27F00DB11DB7
:1055A000639FAA27F00DB11DAA1F649F6627B00D47
:1055B000A11D661F829F2227B00DA11D621F739F30
:1055C000B00DA11D621F839FA00D611D221F749F3E
:1055D0003327A00D611D231F849F600D211D822F85
:1055E000762F6A2F11249F5750408AF0E1F08823CC
:1055F0004AF0EE0FFF1FBB1F661F771F881F9150D9
:105600005040A9F79E3F510570F060CFAACF5F3F91
:10561000ECF3983EDCF3869577956795B795F7950B
:10562000E7959F5FC1F7FE2B880F911D9695879593
:1056300097F90895FA01EE0FFF1F30962105310505
:1056400099F16115710561F48038BFE39B0749F159
:1056500068949038810561F08038BFEF9B0741F076
:10566000992342F5FF3FE1053105210511F1E89449
:105670000894E795D901AA2329F4AB2FBE2FF85F30
:10568000D0F310C0FF5F70F4A695E0F7F73950F043
:1056900019F0FF3A38F49F779F930CD00F9007FCD6
:1056A000905808953EF018CF60E070E080E89FE3E6
:1056B00008954FE79F775F934F933F932F939ED02B
:1056C0002F913F914F915F9152DF05C019F40EF079
:1056D000FDCE46CF01CF2ADFC8F39638C0F707F8D2
:1056E0000F92E8942BE33AEA48EB5FE74EDF0F9224
:1056F0000F920F924DB75EB70F92C0D0E8E6F0E080
:1057000016D04F915F91EF91FF91E595EE1FFF1F2E
:1057100049F0FE57E0684427EE0F441FFA95E1F781
:105720004195550B32D00F9007FE26C00895DF93A8
:10573000CF931F930F93FF92EF92DF927B018C0127
:10574000689405C0DA2EEF011EDFFE01E894A591F2
:105750002591359145915591AEF3EF018EDDFE0116
:105760009701A801DA9479F7DF90EF90FF900F91FD
:105770001F91CF91DF9108959B01AC0160E070E033
:1057800080E89FE3CDCDA2CEACC0D0DEE8F3992374
:10579000D9F3940F511DBBF39150504094F059F040
:1057A000882332F0660F771F881F91505040C1F751
:1057B0009E3F510544F7880F911D9695879597F95F
:1057C00008955F3FACF0983E9CF0BB278695779597
:1057D0006795B79508F4B1609395C1F7BB0F58F77B
:1057E00011F460FFE8CF6F5F7F4F8F4F9F4FE3CF84
:1057F000B8CE0EF076C070CE689468CE97DEC8F34F
:105800009923D1F3C6F3DF93CF931F930F93FF92A6
:10581000C92FDD2788232AF02197660F771F881F5D
:10582000DAF720E030E040E85FEB9FE3883920F0D2
:10583000803E30F021968F770FDDE0E9F0E003C085
:105840000BDDEDEBF0E073DF8B01BE01EC01FB2E15
:105850006F5771097595771F880B990BFCDD28E14F
:1058600032E741E35FE38FDEAF2D9801AE01FF9099
:105870000F911F91CF91DF9100DD3FCEFA01DC0146
:10588000AA0FBB1F9B01AC01BF5728F42227332767
:10589000442750781FC0B75188F4AB2F0024469599
:1058A00037952795011CA395D2F3002069F0220FAC
:1058B000331F441FB395DAF30DD0CDCC61307105A1
:1058C000A0E88A07B94630F49B01AC016627772728
:1058D00088279078309621F0208331834283538348
:1058E00008959F3F31F0915020F487957795679503
:1058F000B795880F911D9695879597F90895A1E220
:105900001A2EAA1BBB1BFD010DC0AA1FBB1FEE1F39
:10591000FF1FA217B307E407F50720F0A21BB30B84
:10592000E40BF50B661F771F881F991F1A9469F700
:1059300060957095809590959B01AC01BD01CF015C
:105940000895EE0FFF1F0590F491E02D09940E9439
:10595000B22CA59F900DB49F900DA49F800D911D1A
:1059600011240895A29FB001B39FC001A39F700DA1
:10597000811D1124911DB29F700D811D1124911D57
:105980000895CF93DF938230910510F482E090E088
:10599000E091BA06F091BB0620E030E0A0E0B0E074
:1059A000309739F14081518148175907B8F04817AD
:1059B000590771F482819381109729F013969C9373
:1059C0008E9312972CC09093BB068093BA0627C083
:1059D0002115310531F04217530718F0A901DB01F9
:1059E00001C0EF019A01BD01DF010280F381E02DCA
:1059F000D7CF21153105F9F0281B390B243031059B
:105A000080F48A819B816115710521F0FB019383EC
:105A1000828304C09093BB068093BA06FE0132963F
:105A200044C0FE01E20FF31F81939193225031098C
:105A3000398328833AC02091B8063091B906232BC8
:105A400041F420910201309103013093B906209373
:105A5000B80620910001309101012115310541F472
:105A60002DB73EB74091040150910501241B350B21
:105A7000E091B806F091B906E217F307A0F42E1BE7
:105A80003F0B2817390778F0AC014E5F5F4F2417A2
:105A9000350748F04E0F5F1F5093B9064093B80684
:105AA0008193919302C0E0E0F0E0CF01DF91CF91CC
:105AB0000895CF93DF93009709F487C0FC013297D4
:105AC00013821282C091BA06D091BB06209781F44E
:105AD00020813181280F391F8091B8069091B90635
